:100000000C9434000C9449000C9449000C94490061
:100010000C9449000C9449000C9449000C9449003C
:100020000C9449000C9449000C9449000C9449002C
:100030000C9449000C9449000C9449000C9449001C
:100040000C9449000C9449000C9449000C9449000C
:100050000C9449000C9449000C9449000C944900FC
:100060000C9449000C94490011241FBECFEFD8E036
:10007000DEBFCDBF11E0A0E0B1E0E4E2F2E002C0FB
:1000800005900D92A630B107D9F70E94E1000C94BB
:1000900010010C940000E1ECF0E080818861808325
:1000A000E2ECF0E08081866080838FE290E09093C4
:1000B000C5008093C40008958091C00087FFFCCFE5
:1000C0008091C60008959091C00095FFFCCF809369
:1000D000C6000895CF93DF93EC018991882319F02E
:1000E0000E946300FACFDF91CF9108958AE00C94CB
:1000F0006300EF92FF920F931F93CF93DF93CDB7DF
:10010000DEB764970FB6F894DEBF0FBECDBF009781
:1001100079F480E364960FB6F894DEBF0FBECDBFCE
:10012000DF91CF911F910F91FF90EF900C9463009E
:10013000FE0131967F012AE030E0B9010E94FC0007
:10014000805D8193CB018F010E191F090097A9F7DC
:100150000115110549F001501109F701E00FF11FD8
:1001600080810E946300F4CF64960FB6F894DEBFDE
:100170000FBECDBFDF91CF911F910F91FF90EF90F8
:100180000895ECE7F0E0808180648083EAE7F0E0A6
:10019000808187688083089590917C008F70907F24
:1001A000892B80937C0080917A00806480937A0010
:1001B00080917A0086FDFCCF809178009091790043
:1001C00008950E944B000E94C1003D98459880E030
:1001D00091E00E946A0085E00E94CC000E947900B4
:1001E0000E9476002FEF8FEF9DE1215080409040DC
:1001F000E1F700C00000EFCFAA1BBB1B51E107C015
:10020000AA1FBB1FA617B70710F0A61BB70B881FA6
:10021000991F5A95A9F780959095BC01CD01089535
:04022000F894FFCF80
:060224006675636B0A0021
:00000001FF
