:100000000C9434000C9451000C9451000C94510049
:100010000C9451000C9451000C9451000C9451001C
:100020000C9451000C9451000C9451000C9451000C
:100030000C9451000C9451000C9451000C945100FC
:100040000C9451000C9451000C9451000C945100EC
:100050000C9451000C9451000C9451000C945100DC
:100060000C9451000C94510011241FBECFEFD8E026
:10007000DEBFCDBF11E0A0E0B1E0E0E8FCE002C0EF
:1000800005900D92A039B107D9F722E0A0E9B1E0BF
:1000900001C01D92A33AB207E1F70E9424040C9418
:1000A0003E060C9400008091C00087FFFCCF809139
:1000B000C60008959091C00095FFFCCF8093C600C4
:1000C0000895CF92DF92EF92FF920F931F93CF93F9
:1000D000DF93CDB7DEB764970FB6F894DEBF0FBEDF
:1000E000CDBF8C0180E20E945A000115110521F458
:1000F00080E30E945A001FC0FE0131966F012AE082
:1001000030E0C801B9010E94E604805D81938B0153
:100110007F01EC18FD086115710599F7E114F104F0
:1001200051F081E0E81AF108F601EE0DFF1D808123
:100130000E945A00F3CF80E264960FB6F894DEBFB7
:100140000FBECDBFDF91CF911F910F91FF90EF9028
:10015000DF90CF900C945A00CF93DF93EC018991FC
:10016000882319F00E945A00FACFDF91CF910895A9
:10017000E1ECF0E0808188618083E2ECF0E0808156
:10018000866080838FE290E09093C5008093C400E6
:10019000539A5B9886E091E00C94AC001092B90001
:1001A0001092B8000895CF92DF92EF92FF920F93D2
:1001B0001F934115510521F40115110509F4A0C043
:1001C00094EA9093BC009091BC0097FFFCCF909173
:1001D000B900987F983009F068C0982F9E7F90935F
:1001E000BB0094E89093BC009091BC0097FFFCCFBB
:1001F0009091B900987F983121F0903209F055C064
:1002000051C0FB01460F571F64E8E417F50791F052
:1002100091919093BB006093BC009091BC0097FFBC
:10022000FCCF9091B900987F983279F39033E9F53B
:1002300090E338C0F901020F131F24E8E017F1071B
:1002400079F091919093BB002093BC009091BC00F9
:1002500097FFFCCF9091B900987F983279F3E6CF61
:10026000C114D10409F44AC020E194EA9093BC007F
:100270009091BC0097FFFCCF9091B900987F9213AA
:1002800014C081608093BB0084E88093BC0080919F
:10029000BC0087FFFCCF9091B900987F903439F073
:1002A000983419F484E98093BC00892F2FC0F7019A
:1002B00084EC91E0C916D10491F08093BC00909138
:1002C000BC0097FFFCCF9091B900987F21E0C21A43
:1002D000D108903551F79091BB009193EACF84E813
:1002E0008093BC008091BC0087FFFCCF9091B90047
:1002F000987F9835D1F68091BB00808390E0D2CF73
:10030000C114D10411F028E0B0CF80E01F910F910B
:10031000FF90EF90DF90CF900895CF92DF92EF9211
:10032000FF920F931F93CF93DF9300D0CDB7DEB72B
:100330008A83C12CD12CE12CF12C01E010E09E012C
:100340002E5F3F4F40E050E060E070E088E80E94A0
:10035000D300CC24C394D12CCE0101967C0100E0C3
:1003600010E020E030E040E050E060E070E088E83D
:100370000E94D30089810F900F90DF91CF911F9140
:100380000F91FF90EF90DF90CF900895CF92DF9282
:10039000EF92FF920F931F93CF93DF9300D01F92A2
:1003A000CDB7DEB78B8382E089838A83C12CD12CC1
:1003B000E12CF12C01E010E09E012D5F3F4F40E069
:1003C00050E060E070E088E80E94D300882319F0D4
:1003D00081E291E015C032E0C32ED12CCE0101960E
:1003E0007C0100E010E020E030E040E050E060E020
:1003F00070E088E80E94D300882339F082E391E01E
:100400000E94AC0080E090E007C0898190E0982FC6
:1004100088272A81820F911D0F900F900F90DF91F6
:10042000CF911F910F91FF90EF90DF90CF900895A3
:10043000CF92DF92EF92FF920F931F93CF93DF93B0
:1004400000D0CDB7DEB789836A83C12CD12CE12CD3
:10045000F12C02E010E09E012F5F3F4F40E050E0A2
:1004600060E070E088E80E94D300882321F083E4F4
:1004700091E00E94AC000F900F90DF91CF911F91FF
:100480000F91FF90EF90DF90CF900895CF9366E4A7
:1004900080E00E94180281E00E948D01C82F82E056
:1004A0000E948D01C82B83E00E948D01C82B88E03B
:1004B0000E948D01C82B81E009F080E0CF91089562
:1004C0001F93CF93DF93182FD62FC42F682F81E06F
:1004D0000E9418026D2F82E00E9418026C2F83E0A8
:1004E0000E94180281E00E948D0181130AC082E0FF
:1004F0000E948D018D1305C083E00E948D0191E063
:100500008C1390E0892FDF91CF911F910895CF93A5
:10051000DF9380E00E948D01C82FD0E082E591E05A
:100520000E94AC00CE010E946100CD37D10521F0C0
:100530008DE591E00E94AC0089E691E00E94AC005C
:100540000E944602C82F84E791E00E94AC0040E080
:100550006FE38DE00E946002C8238BE791E00E9468
:10056000AC008C2FDF91CF9108958BE00C94C601E5
:1005700089E00C94C6018DE00C94C601CF92DF9205
:10058000EF92FF920F931F93CF93DF9300D0CDB7DD
:10059000DEB78A83C12CD12CE12CF12C01E010E0D4
:1005A0009E012E5F3F4F40E050E060E070E083EA44
:1005B0000E94D300CC24C394D12CCE0101967C019F
:1005C00000E010E020E030E040E050E060E070E06B
:1005D00083EA0E94D30089810F900F90DF91CF9121
:1005E0001F910F91FF90EF90DF90CF900895CF92E1
:1005F000DF92EF92FF920F931F93CF93DF9300D080
:100600001F92CDB7DEB78B8382E089838A83C12CAA
:10061000D12CE12CF12C01E010E09E012D5F3F4F29
:1006200040E050E060E070E083EA0E94D30088235D
:1006300019F081E291E015C032E0C32ED12CCE0139
:1006400001967C0100E010E020E030E040E050E066
:1006500060E070E083EA0E94D300882339F082E3EF
:1006600091E00E94AC0080E090E007C0898190E0BA
:10067000982F88272A81820F911D0F900F900F903D
:10068000DF91CF911F910F91FF90EF90DF90CF906E
:100690000895CF92DF92EF92FF920F931F93CF9323
:1006A000DF9300D0CDB7DEB789836A83C12CD12C0C
:1006B000E12CF12C02E010E09E012F5F3F4F40E063
:1006C00050E060E070E083EA0E94D300882321F0CC
:1006D00083E491E00E94AC000F900F90DF91CF91E6
:1006E0001F910F91FF90EF90DF90CF90089560E001
:1006F00082E00E94490361E083E00E94490360E1D7
:1007000084E00C944903CF93DF93EC0182E00E94D4
:10071000BE028F738A8383E00E94BE028F73898337
:1007200084E00E94BE028F718883DF91CF9108958B
:10073000219A8AB180668AB9E0E8F0E08081816818
:100740008083E1E8F0E080818960808384B5836AFA
:1007500084BD85B5816085BD0895FB01DC018C9168
:100760008051843068F4809103018083809104017A
:10077000818380910501828382E891E00C94AC0032
:1007800008951092A00210929F0210929801109268
:1007900097010895FF920F931F93CF93DF938C01DE
:1007A000F62E209197013091980180919F029091AF
:1007B000A0024496C5E1D0E0BE010E94E6042817DD
:1007C000390701F1F901EE0FFF1FDF01A156BE4FFE
:1007D0000D931C93DF01AD50BE4F6F2D70E06D93F4
:1007E0007C93E55BFD4F50E051834083C901019646
:1007F000BE010E94E604909398018093970180E0E7
:1008000090E002C08FEF9FEFDF91CF911F910F918A
:10081000FF90089580919F029091A00220919701EE
:10082000309198012817390761F0019665E170E071
:100830000E94E6049093A00280939F0280E090E0E3
:1008400008958FEF9FEF0895CF93DF9300D01F920D
:10085000CDB7DEB70E9498030E94B8000E94CE0078
:100860000E9487020E94C1030E94770319821A82A4
:100870001B8285E1C82ED12CE12CF12CCE010196F2
:100880000E9483030E94B5025C010E94B802982E68
:100890000E94BB02782E482F692DC5010E94CA0311
:1008A000019639F40E940A04472D692DC5010E9462
:1008B000CA03EFE9F1E0412C512C32018191919171
:1008C000A191B191480E591E6A1E7B1E81E0E33F43
:1008D000F807A1F767E472E0CE0101960E94AD032C
:1008E00090909B01892D90E0A0904702B12C95013A
:1008F00020553109821793072CF400351105DCF5DA
:1009000093940AC09501205B3F4F281739074CF498
:100910000035110584F59A9490929B010F5F1F4F4B
:100920002CC0C301B201A70196010E94FA04B901CB
:1009300080E090E00E944D0520E030E040E857E381
:100940000E94B30520E030E04FE753E40E94B30576
:100950000E941C05C50144968617970714F49A94C3
:1009600007C094E1A91AB1086A157B0534F4939481
:1009700090929B0102C000E010E080919B0190E00A
:100980009093890080938800898190E00E946100A3
:100990008BE591E00E94AC008A8190E00E946100AA
:1009A0008BE591E00E94AC008B8190E00E94610099
:1009B0008AE891E00E94AC002FEF8FEF92E0215087
:1009C00080409040E1F700C000C058CFAA1BBB1B7D
:1009D00051E107C0AA1FBB1FA617B70710F0A61B3F
:1009E000B70B881F991F5A95A9F780959095BC0160
:1009F000CD010895A1E21A2EAA1BBB1BFD010DC05B
:100A0000AA1FBB1FEE1FFF1FA217B307E407F507BE
:100A100020F0A21BB30BE40BF50B661F771F881F9A
:100A2000991F1A9469F760957095809590959B0130
:100A3000AC01BD01CF01089504D06894B1118DC0FF
:100A4000089570D088F09F5790F0B92F9927B7512B
:100A5000A0F0D1F0660F771F881F991F1AF0BA9582
:100A6000C9F712C0B13081F077D0B1E0089574C0F9
:100A7000672F782F8827B85F39F0B93FCCF3869578
:100A800077956795B395D9F73EF4909580957095D5
:100A900061957F4F8F4F9F4F0895E89409C097FB52
:100AA0003EF490958095709561957F4F8F4F9F4F45
:100AB0009923A9F0F92F96E9BB279395F695879589
:100AC00077956795B795F111F8CFFAF4BB0F11F44C
:100AD00060FF1BC06F5F7F4F8F4F9F4F16C08823F3
:100AE00011F096E911C0772321F09EE8872F762F29
:100AF00005C0662371F096E8862F70E060E02AF06A
:100B00009A95660F771F881FDAF7880F9695879555
:100B100097F9089557FD9058440F551F59F05F3FBE
:100B200071F04795880F97FB991F61F09F3F79F00F
:100B300087950895121613061406551FF2CF469591
:100B4000F1DF08C0161617061806991FF1CF869513
:100B50007105610508940895E894BB2766277727F7
:100B6000CB0197F908950BD078C069D028F06ED0EA
:100B700018F0952309F05AC05FC01124EECFCADFE8
:100B8000A0F3959FD1F3950F50E0551F629FF001A0
:100B9000729FBB27F00DB11D639FAA27F00DB11DF9
:100BA000AA1F649F6627B00DA11D661F829F222782
:100BB000B00DA11D621F739FB00DA11D621F839F09
:100BC000A00D611D221F749F3327A00D611D231FDF
:100BD000849F600D211D822F762F6A2F11249F572D
:100BE00050408AF0E1F088234AF0EE0FFF1FBB1F50
:100BF000661F771F881F91505040A9F79E3F5105EF
:100C000070F014C0AACF5F3FECF3983EDCF38695FA
:100C100077956795B795F795E7959F5FC1F7FE2B99
:100C2000880F911D9695879597F9089597F99F6775
:100C300080E870E060E008959FEF80EC0895002464
:100C40000A941616170618060906089500240A9431
:100C500012161306140605060895092E0394000CB7
:100C600011F4882352F0BB0F40F4BF2B11F460FF46
:100C700004C06F5F7F4F8F4F9F4F0895F894FFCF51
:100C8000FF8000FFFFFF2D2D2D2D73657269616CB4
:100C900020696E697469616C697A65642D2D2D2DEA
:100CA00000205265616431365F77206661696C654A
:100CB0006400205265616431365F72206661696C40
:100CC00065640020577269746538206661696C65D7
:100CD00064004445564943455F49443A00206461F5
:100CE0007461213D307837440020436865636B654B
:100CF0006449440020526573657400436F6E6669F1
:100D0000670064617974696D65002020202000000F
:00000001FF
