:100000000C9434000C9451000C9451000C94510049
:100010000C9451000C9451000C9451000C9451001C
:100020000C9451000C9451000C9451000C9451000C
:100030000C9451000C9451000C9451000C945100FC
:100040000C9451000C9451000C9451000C945100EC
:100050000C9451000C9451000C9451000C945100DC
:100060000C9451000C94510011241FBECFEFD8E026
:10007000DEBFCDBF11E0A0E0B1E0ECEDFDE002C0DD
:1000800005900D92A838B107D9F722E0A8E8B1E0B1
:1000900001C01D92A432B207E1F70E94A0050C94A2
:1000A000EC060C9400005B988091C00087FFFCCFA9
:1000B0008091C60008955B989091C00095FFFCCF99
:1000C0008093C6000895CF92DF92EF92FF920F9334
:1000D0001F93CF93DF93CDB7DEB764970FB6F89435
:1000E000DEBF0FBECDBF8C015B9880E20E945B003B
:1000F0000115110521F480E30E945B001FC0FE0181
:1001000031966F012AE030E0C801B9010E94A206D1
:10011000805D81938B017F01EC18FD0861157105ED
:1001200099F7E114F10451F081E0E81AF108F601C1
:10013000EE0DFF1D80810E945B00F3CF80E264968C
:100140000FB6F894DEBF0FBECDBFDF91CF911F91E8
:100150000F91FF90EF90DF90CF900C945B00CF93C6
:10016000DF935B98EC018991882319F00E945B0072
:10017000FACFDF91CF910895E1ECF0E080818861C2
:100180008083E2ECF0E08081866080838FE290E003
:100190009093C5008093C400539A5B9886E091E0E9
:1001A0000C94AF005B9A93E09A95F1F70000909160
:1001B000C00095FFFCCF8093C60008958C7F0C94FF
:1001C000D2008C7F8F5F0C94D2008C7F8E5F0C945A
:1001D000D2001092B9001092B8000895CF92DF9229
:1001E000EF92FF920F931F934115510521F40115D2
:1001F000110509F4A0C094EA9093BC009091BC0052
:1002000097FFFCCF9091B900987F983009F068C0B3
:10021000982F9E7F9093BB0094E89093BC009091A0
:10022000BC0097FFFCCF9091B900987F983121F0E6
:10023000903209F055C051C0FB01460F571F64E8CA
:10024000E417F50791F091919093BB006093BC0087
:100250009091BC0097FFFCCF9091B900987F9832A5
:1002600079F39033E9F590E338C0F901020F131FD9
:1002700024E8E017F10779F091919093BB00209367
:10028000BC009091BC0097FFFCCF9091B900987F83
:10029000983279F3E6CFC114D10409F44AC020E1C1
:1002A00094EA9093BC009091BC0097FFFCCF909192
:1002B000B900987F921314C081608093BB0084E8DA
:1002C0008093BC008091BC0087FFFCCF9091B90067
:1002D000987F903439F0983419F484E98093BC0005
:1002E000892F2FC0F70184EC91E0C916D10491F059
:1002F0008093BC009091BC0097FFFCCF9091B90017
:10030000987F21E0C21AD108903551F79091BB0037
:100310009193EACF84E88093BC008091BC0087FF72
:10032000FCCF9091B900987F9835D1F68091BB00B1
:10033000808390E0D2CFC114D10411F028E0B0CF77
:1003400080E01F910F91FF90EF90DF90CF90089584
:10035000CF92DF92EF92FF920F931F93CF93DF9391
:1003600000D0CDB7DEB78A83C12CD12CE12CF12C83
:1003700001E010E09E012E5F3F4F40E050E060E062
:1003800070E088E80E94EE00CC24C394D12CCE010A
:1003900001967C0100E010E020E030E040E050E019
:1003A00060E070E088E80E94EE0089810F900F9075
:1003B000DF91CF911F910F91FF90EF90DF90CF9041
:1003C0000895CF92DF92EF92FF920F931F93CF93F6
:1003D000DF9300D01F92CDB7DEB78B8382E0898395
:1003E0008A83C12CD12CE12CF12C01E010E09E017C
:1003F0002D5F3F4F40E050E060E070E088E80E94F1
:10040000EE00882319F081E291E015C032E0C32E9E
:10041000D12CCE0101967C0100E010E020E030E01C
:1004200040E050E060E070E088E80E94EE00882341
:1004300039F082E391E00E94AF0080E090E007C0D5
:10044000898190E0982F88272A81820F911D0F9033
:100450000F900F90DF91CF911F910F91FF90EF9030
:10046000DF90CF900895CF92DF92EF92FF920F939B
:100470001F93CF93DF9300D0CDB7DEB789836A8314
:10048000C12CD12CE12CF12C02E010E09E012F5F59
:100490003F4F40E050E060E070E088E80E94EE00EE
:1004A000882321F083E491E00E94AF000F900F9029
:1004B000DF91CF911F910F91FF90EF90DF90CF9040
:1004C0000895CF9366E480E00E94330281E00E94A9
:1004D000A801C82F82E00E94A801C82B83E00E94D7
:1004E000A801C82B88E00E94A801C82B81E009F070
:1004F00080E0CF9108951F93CF93DF93182FD62FCD
:10050000C42F682F81E00E9433026D2F82E00E9489
:1005100033026C2F83E00E94330281E00E94A80125
:1005200081130AC082E00E94A8018D1305C083E0F8
:100530000E94A80191E08C1390E0892FDF91CF9168
:100540001F910895CF93DF9380E00E94A801C82FE8
:10055000D0E082E591E00E94AF00CE010E946300EE
:10056000CD37D10521F08DE591E00E94AF0089E6FD
:1005700091E00E94AF000E946102C82F84E791E0E1
:100580000E94AF0040E06FE38DE00E947B02C82331
:100590008BE791E00E94AF008C2FDF91CF910895FF
:1005A0008BE00C94E10189E00C94E1018DE00C9466
:1005B000E101CF92DF92EF92FF920F931F93CF93BF
:1005C000DF9300D0CDB7DEB78A83C12CD12CE12CCC
:1005D000F12C01E010E09E012E5F3F4F40E050E023
:1005E00060E070E083EA0E94EE00CC24C394D12C3A
:1005F000CE0101967C0100E010E020E030E040E018
:1006000050E060E070E083EA0E94EE0089810F9084
:100610000F90DF91CF911F910F91FF90EF90DF909E
:10062000CF900895CF92DF92EF92FF920F931F9396
:10063000CF93DF9300D01F92CDB7DEB78B8382E0DC
:1006400089838A83C12CD12CE12CF12C01E010E0AC
:100650009E012D5F3F4F40E050E060E070E083EA94
:100660000E94EE00882319F081E291E015C032E08B
:10067000C32ED12CCE0101967C0100E010E020E0D9
:1006800030E040E050E060E070E083EA0E94EE007D
:10069000882339F082E391E00E94AF0080E090E08F
:1006A00007C0898190E0982F88272A81820F911DA9
:1006B0000F900F900F90DF91CF911F910F91FF90AE
:1006C000EF90DF90CF900895CF92DF92EF92FF925C
:1006D0000F931F93CF93DF9300D0CDB7DEB78983FD
:1006E0006A83C12CD12CE12CF12C02E010E09E0198
:1006F0002F5F3F4F40E050E060E070E083EA0E94EF
:10070000EE00882321F083E491E00E94AF000F9077
:100710000F90DF91CF911F910F91FF90EF90DF909D
:10072000CF90089560E082E00E94640361E083E07E
:100730000E94640360E184E00C946403CF93DF9330
:10074000EC0182E00E94D9028F738A8383E00E94C9
:10075000D9028F73898384E00E94D9028F718883C4
:10076000DF91CF9108953B984398089586B183FB1C
:10077000882780F90895219A8AB180668AB9E0E8CD
:10078000F0E0808181688083E1E8F0E08081896029
:10079000808384B5836A84BD85B5816085BD0895F5
:1007A000EF92FF920F931F93CF93DF938C017B0106
:1007B000EA01DC0112968C91843130F481E080935F
:1007C0008A011092890109C09CEE980F943140F47F
:1007D00010928A0181E080938901109288010AC0F9
:1007E0008852833138F410928A011092890181E095
:1007F0008093880180918A01882371F1809103019F
:100800008883809104018983809105018A83F8019E
:10081000928180910301989FC00111242AE030E069
:10082000B9010E94B606D7016C93928180910401B0
:10083000989FC0011124B9010E94B606F701618397
:10084000D80112969C9180910501989FC0011124B6
:10085000B9010E94B606EFC080918901882309F48E
:100860005EC080910001888380910101898380911D
:1008700002018A83F801228130E0A9014451510923
:1008800060910301649FC001659F900D1124EEE10A
:10089000F0E0AF01421B530B60910001649F900197
:1008A000659F300D1124820F931F2AE030E0B901BB
:1008B0000E94B606D7016C93D80112964C9150E075
:1008C000BA0164517109A0910401A69FC001A79FBC
:1008D000900D1124BF01641B750BA0910101A69F0F
:1008E000A001A79F500D1124840F951FB9010E94EC
:1008F000B606D70111966C93D80112964C9150E030
:10090000BA0164517109A0910501A69FC001A79F7A
:10091000900D1124E41BF50B6091020181C08091C0
:100920008801882309F488C00E94B603882319F03F
:1009300081E080938C0180918C01882399F08091D3
:1009400000018883809101018983809102018A835B
:1009500080918B018F5F80938B018E3160F01092BC
:100960008C0109C080918D01888380918E018983DB
:1009700080918F018A83D80112962C9130E0A901D1
:100980004852510960910001649FC001659F900D1C
:100990001124E2E3F0E0AF01421B530B60918D01A3
:1009A000649F9001659F300D1124820F931F2AE0F0
:1009B00030E0B9010E94B606D7016C93D8011296B7
:1009C0004C9150E0BA0168527109A0910101A69FB3
:1009D000C001A79F900D1124BF01641B750BA0914E
:1009E0008E01A69FA001A79F500D1124840F951F73
:1009F000B9010E94B606D70111966C93D8011296E0
:100A00004C9150E0BA0168527109A0910201A69F71
:100A1000C001A79F900D1124E41BF50B60918F017D
:100A20006E9FA0016F9F500D1124840F951FB90177
:100A30000E94B606F7016283D80112968C918093CA
:100A40009201DF91CF911F910F91FF90EF90089548
:100A500010922102109220021092120210921102A2
:100A60000895FF920F931F93CF93DF938C01F62E7F
:100A70002091110230911202809120029091210266
:100A80004496C5E1D0E0BE010E94A20628173907AE
:100A900001F1F901EE0FFF1FDF01AD56BE4F0D93BF
:100AA0001C93DF01A354BE4F6F2D70E06D937C93B8
:100AB000E951FE4F50E051834083C9010196BE01C8
:100AC0000E94A206909312028093110280E090E0AF
:100AD00002C08FEF9FEFDF91CF911F910F91FF9099
:100AE000089580912002909121022091110230916D
:100AF00012022817390761F0019665E170E00E9443
:100B0000A206909321028093200280E090E0089555
:100B10008FEF9FEF0895E5E1F2E0808190E0909300
:100B200089008093880080810C94DE0080911602F9
:100B300088BD0C94E1008091170287BD0C94E500FC
:100B4000CF93DF9300D01F92CDB7DEB70E94BB03D7
:100B50000E94BC000E94E9000E94A2020E94280597
:100B60000E94920319821A821B829BE0C92ED12C0B
:100B7000E12CF12C01E011E0CE0101960E949E03D0
:100B8000898190E00E9463008BE591E00E94AF00B4
:100B90008A8190E00E9463008BE591E00E94AF00A3
:100BA0008B8190E00E94630082E891E00E94AF0098
:100BB0000E94D0025C010E94D302982E0E94D602AD
:100BC000882E482F692DC5010E943105019639F400
:100BD0000E947105482D692DC5010E943105E3E988
:100BE000F1E08DEB282E81E0382E27EE31E0812CCC
:100BF000912C5401412C512C320160E070E0CB016A
:100C000041915191640F751F811D911DD1014D912D
:100C10005D911D01440E551E611C711CD9014D9141
:100C20005D919D01840E951EA11CB11CB1E0E93AB5
:100C3000FB0731F7A70196010E94CA06C901B80156
:100C40000E94A20660931B02C301B201A701960194
:100C50000E94CA06C901B8010E94A2066093190247
:100C6000C501B401A70196010E94CA06C901B801D5
:100C70000E94A20660931A024CE152E065E172E024
:100C8000CE0101960E94D00380911C02A82EA6944A
:100C900090911B02A91680F4B0901502AB1470F469
:100CA000B09215020E948B058FEF9FEB0197F1F731
:100CB00000C00000BA94F2CF8093150280911D020B
:100CC000A82EA69490911902A91680F4B09016024D
:100CD000AB1470F4B09216020E949605AFEFBFEB12
:100CE0001197F1F700C00000BA94F2CF809316027A
:100CF00080911E02A82EA69490911A02A91680F443
:100D0000B0901702AB1470F4B09217020E949B05CA
:100D10008FEF9FEB0197F1F700C00000BA94F2CF7C
:100D2000809317020E948B050E9496050E949B05E6
:100D30009FEFAFEFB2E09150A040B040E1F700C0AC
:100D400000C01ACFAA1BBB1B51E107C0AA1FBB1FC3
:100D5000A617B70710F0A61BB70B881F991F5A9547
:100D6000A9F780959095BC01CD01089597FB072EBA
:100D700016F4009407D077FD09D00E94A20607FC64
:100D800005D03EF4909581959F4F0895709561959B
:100D90007F4F0895A1E21A2EAA1BBB1BFD010DC0B7
:100DA000AA1FBB1FEE1FFF1FA217B307E407F5071B
:100DB00020F0A21BB30BE40BF50B661F771F881FF7
:100DC000991F1A9469F760957095809590959B018D
:0C0DD000AC01BD01CF010895F894FFCFE5
:100DDC00FF8000FFFFFF2D2D2D2D73657269616C57
:100DEC0020696E697469616C697A65642D2D2D2D8D
:100DFC0000205265616431365F77206661696C65ED
:100E0C006400205265616431365F72206661696CE2
:100E1C0065640020577269746538206661696C6579
:100E2C0064004445564943455F49443A0020646197
:100E3C007461213D307837440020436865636B65ED
:100E4C006449440020526573657400436F6E666993
:080E5C006700202020200000A7
:00000001FF
