:100000000C9434000C9451000C9451000C94510049
:100010000C9451000C9451000C9451000C9451001C
:100020000C9451000C9451000C9451000C9451000C
:100030000C9451000C9451000C9451000C945100FC
:100040000C9451000C9451000C9451000C945100EC
:100050000C9451000C9451000C9451000C945100DC
:100060000C9451000C94510011241FBECFEFD8E026
:10007000DEBFCDBF11E0A0E0B1E0E8E1FAE002C0F0
:1000800005900D92A238B107D9F722E0A2E8B1E0BD
:1000900001C01D92A939B207E1F70E94A2040C9495
:1000A0000A050C9400005B988091C00087FFFCCF8C
:1000B0008091C60008955B989091C00095FFFCCF99
:1000C0008093C6000895CF92DF92EF92FF920F9334
:1000D0001F93CF93DF93CDB7DEB764970FB6F89435
:1000E000DEBF0FBECDBF8C015B9880E20E945B003B
:1000F0000115110521F480E30E945B001FC0FE0181
:1001000031966F012AE030E0C801B9010E94F6047F
:10011000805D81938B017F01EC18FD0861157105ED
:1001200099F7E114F10451F081E0E81AF108F601C1
:10013000EE0DFF1D80810E945B00F3CF80E264968C
:100140000FB6F894DEBF0FBECDBFDF91CF911F91E8
:100150000F91FF90EF90DF90CF900C945B00CF93C6
:10016000DF935B98EC018991882319F00E945B0072
:10017000FACFDF91CF910895E1ECF0E080818861C2
:100180008083E2ECF0E08081866080838FE290E003
:100190009093C5008093C400539A5B9886E091E0E9
:1001A0000C94AF005B9A93E09A95F1F70000909160
:1001B000C00095FFFCCF8093C60008958C7F0C94FF
:1001C000D2008C7F8F5F0C94D2008C7F8E5F0C945A
:1001D000D2001092B9001092B8000895CF92DF9229
:1001E000EF92FF920F931F934115510521F40115D2
:1001F000110509F4A0C094EA9093BC009091BC0052
:1002000097FFFCCF9091B900987F983009F068C0B3
:10021000982F9E7F9093BB0094E89093BC009091A0
:10022000BC0097FFFCCF9091B900987F983121F0E6
:10023000903209F055C051C0FB01460F571F64E8CA
:10024000E417F50791F091919093BB006093BC0087
:100250009091BC0097FFFCCF9091B900987F9832A5
:1002600079F39033E9F590E338C0F901020F131FD9
:1002700024E8E017F10779F091919093BB00209367
:10028000BC009091BC0097FFFCCF9091B900987F83
:10029000983279F3E6CFC114D10409F44AC020E1C1
:1002A00094EA9093BC009091BC0097FFFCCF909192
:1002B000B900987F921314C081608093BB0084E8DA
:1002C0008093BC008091BC0087FFFCCF9091B90067
:1002D000987F903439F0983419F484E98093BC0005
:1002E000892F2FC0F70184EC91E0C916D10491F059
:1002F0008093BC009091BC0097FFFCCF9091B90017
:10030000987F21E0C21AD108903551F79091BB0037
:100310009193EACF84E88093BC008091BC0087FF72
:10032000FCCF9091B900987F9835D1F68091BB00B1
:10033000808390E0D2CFC114D10411F028E0B0CF77
:1003400080E01F910F91FF90EF90DF90CF90089584
:10035000CF92DF92EF92FF920F931F93CF93DF9391
:1003600000D0CDB7DEB78A83C12CD12CE12CF12C83
:1003700001E010E09E012E5F3F4F40E050E060E062
:1003800070E088E80E94EE00CC24C394D12CCE010A
:1003900001967C0100E010E020E030E040E050E019
:1003A00060E070E088E80E94EE0089810F900F9075
:1003B000DF91CF911F910F91FF90EF90DF90CF9041
:1003C0000895CF92DF92EF92FF920F931F93CF93F6
:1003D000DF9300D01F92CDB7DEB78B8382E0898395
:1003E0008A83C12CD12CE12CF12C01E010E09E017C
:1003F0002D5F3F4F40E050E060E070E088E80E94F1
:10040000EE00882319F081E291E015C032E0C32E9E
:10041000D12CCE0101967C0100E010E020E030E01C
:1004200040E050E060E070E088E80E94EE00882341
:1004300039F082E391E00E94AF0080E090E007C0D5
:10044000898190E0982F88272A81820F911D0F9033
:100450000F900F90DF91CF911F910F91FF90EF9030
:10046000DF90CF900895CF92DF92EF92FF920F939B
:100470001F93CF93DF9300D0CDB7DEB789836A8314
:10048000C12CD12CE12CF12C02E010E09E012F5F59
:100490003F4F40E050E060E070E088E80E94EE00EE
:1004A000882321F083E491E00E94AF000F900F9029
:1004B000DF91CF911F910F91FF90EF90DF90CF9040
:1004C0000895CF9366E480E00E94330281E00E94A9
:1004D000A801C82F82E00E94A801C82B83E00E94D7
:1004E000A801C82B88E00E94A801C82B81E009F070
:1004F00080E0CF9108951F93CF93DF93182FD62FCD
:10050000C42F682F81E00E9433026D2F82E00E9489
:1005100033026C2F83E00E94330281E00E94A80125
:1005200081130AC082E00E94A8018D1305C083E0F8
:100530000E94A80191E08C1390E0892FDF91CF9168
:100540001F910895CF93DF9380E00E94A801C82FE8
:10055000D0E082E591E00E94AF00CE010E946300EE
:10056000CD37D10521F08DE591E00E94AF0089E6FD
:1005700091E00E94AF000E946102C82F84E791E0E1
:100580000E94AF0040E06FE38DE00E947B02C82331
:100590008BE791E00E94AF008C2FDF91CF910895FF
:1005A0008BE00C94E10189E00C94E1018DE00C9466
:1005B000E101CF92DF92EF92FF920F931F93CF93BF
:1005C000DF9300D0CDB7DEB78A83C12CD12CE12CCC
:1005D000F12C01E010E09E012E5F3F4F40E050E023
:1005E00060E070E083EA0E94EE00CC24C394D12C3A
:1005F000CE0101967C0100E010E020E030E040E018
:1006000050E060E070E083EA0E94EE0089810F9084
:100610000F90DF91CF911F910F91FF90EF90DF909E
:10062000CF900895CF92DF92EF92FF920F931F9396
:10063000CF93DF9300D01F92CDB7DEB78B8382E0DC
:1006400089838A83C12CD12CE12CF12C01E010E0AC
:100650009E012D5F3F4F40E050E060E070E083EA94
:100660000E94EE00882319F081E291E015C032E08B
:10067000C32ED12CCE0101967C0100E010E020E0D9
:1006800030E040E050E060E070E083EA0E94EE007D
:10069000882339F082E391E00E94AF0080E090E08F
:1006A00007C0898190E0982F88272A81820F911DA9
:1006B0000F900F900F90DF91CF911F910F91FF90AE
:1006C000EF90DF90CF900895CF92DF92EF92FF925C
:1006D0000F931F93CF93DF9300D0CDB7DEB78983FD
:1006E0006A83C12CD12CE12CF12C02E010E09E0198
:1006F0002F5F3F4F40E050E060E070E083EA0E94EF
:10070000EE00882321F083E491E00E94AF000F9077
:100710000F90DF91CF911F910F91FF90EF90DF909D
:10072000CF90089560E082E00E94640361E083E07E
:100730000E94640360E184E00C946403CF93DF9330
:10074000EC0182E00E94D9028F738A8383E00E94C9
:10075000D9028F73898384E00E94D9028F718883C4
:10076000DF91CF910895219A8AB180668AB9E0E835
:10077000F0E0808181688083E1E8F0E08081896039
:10078000808384B5836A84BD85B5816085BD089505
:10079000CF93DF93DC01EB01FA018C9186508E3010
:1007A00018F481E0809384018C918451823018F494
:1007B00081E0809383018C91863018F481E08093EE
:1007C000820180918401882309F444C080918501CD
:1007D000811105C081E0809385011092860180918E
:1007E000860181112DC0988180819817B8F490916D
:1007F0008701981758F498838FEF9FE50197F1F7D9
:1008000000C00000809187018F5F18C0109287019F
:1008100081E0809386018093850112C0891780F45E
:1008200090918701891790F798838FEF9FE5019743
:10083000F1F700C00000809187018150809387010B
:10084000809103018083809104018183809105015F
:10085000828312C080918301882351F080918501A9
:1008600081110AC081E0809385011092860104C045
:10087000809182018111F2CFDF91CF910895109282
:1008800096021092950210928E0110928D01089599
:10089000FF920F931F93CF93DF938C01F62E20913D
:1008A0008D0130918E01809195029091960244962F
:1008B000C5E1D0E0BE010E94F6042817390701F116
:1008C000F901EE0FFF1FDF01AB56BE4F0D931C93D6
:1008D000DF01A751BE4F6F2D70E06D937C93EF5BEE
:1008E000FD4F50E051834083C9010196BE010E9433
:1008F000F60490938E0180938D0180E090E002C019
:100900008FEF9FEFDF91CF911F910F91FF9008958F
:10091000809195029091960220918D0130918E01E7
:100920002817390761F0019665E170E00E94F6042E
:10093000909396028093950280E090E008958FEF67
:100940009FEF0895CF93DF9300D01F92CDB7DEB70E
:100950000E94B3030E94BC000E94E9000E94A20210
:100960000E943F040E94920319821A821B82CE01C8
:1009700001960E949E030E94D0028C010E94D30225
:10098000F82E0E94D602E82E482F6F2DC8010E9433
:100990004804019639F40E9488044E2D6F2DC80139
:1009A0000E94480485E190E001970097E9F74DE344
:1009B00052E061E971E0CE0101960E94C803809186
:1009C0003D02809391010E94DE008091910190E0B0
:1009D00090938900809388008FEF9FEF22E08150F1
:1009E00090402040E1F700C000C0C1CFAA1BBB1B54
:1009F00051E107C0AA1FBB1FA617B70710F0A61B1F
:100A0000B70B881F991F5A95A9F780959095BC013F
:080A1000CD010895F894FFCF19
:100A1800FF8000FFFFFF2D2D2D2D73657269616C1E
:100A280020696E697469616C697A65642D2D2D2D54
:100A380000205265616431365F77206661696C65B4
:100A48006400205265616431365F72206661696CAA
:100A580065640020577269746538206661696C6541
:100A680064004445564943455F49443A002064615F
:100A78007461213D307837440020436865636B65B5
:100A88006449440020526573657400436F6E66695B
:020A98006700F5
:00000001FF
