:100000000C9434000C9451000C9451000C94510049
:100010000C9451000C9451000C9451000C9451001C
:100020000C9451000C9451000C9451000C9451000C
:100030000C9451000C9451000C9451000C945100FC
:100040000C9451000C9451000C9451000C945100EC
:100050000C9451000C9451000C9451000C945100DC
:100060000C9451000C94510011241FBECFEFD8E026
:10007000DEBFCDBF11E0A0E0B1E0E2E1F8E002C0F8
:1000800005900D92A63BB107D9F721E0A6EBB1E0B0
:1000900001C01D92AA3BB207E1F70E9494030C94A1
:1000A00007040C9400008091C00087FFFCCF809172
:1000B000C60008959091C00095FFFCCF8093C600C4
:1000C0000895CF92DF92EF92FF920F931F93CF93F9
:1000D000DF93CDB7DEB764970FB6F894DEBF0FBEDF
:1000E000CDBF8C0180E20E945A000115110521F458
:1000F00080E30E945A001FC0FE0131966F012AE082
:1001000030E0C801B9010E94F303805D81938B0147
:100110007F01EC18FD086115710599F7E114F104F0
:1001200051F081E0E81AF108F601EE0DFF1D808123
:100130000E945A00F3CF80E264960FB6F894DEBFB7
:100140000FBECDBFDF91CF911F910F91FF90EF9028
:10015000DF90CF900C945A00CF93DF93EC018991FC
:10016000882319F00E945A00FACFDF91CF910895A9
:10017000E1ECF0E0808188618083E2ECF0E0808156
:10018000866080838FE290E09093C5008093C400E6
:10019000539A5B9880E091E00C94AC001092B90007
:1001A0001092B8000895CF92DF92EF92FF920F93D2
:1001B0001F934115510521F40115110509F4A0C043
:1001C00094EA9093BC009091BC0097FFFCCF909173
:1001D000B900987F983009F068C0982F9E7F90935F
:1001E000BB0094E89093BC009091BC0097FFFCCFBB
:1001F0009091B900987F983121F0903209F055C064
:1002000051C0FB01460F571F64E8E417F50791F052
:1002100091919093BB006093BC009091BC0097FFBC
:10022000FCCF9091B900987F983279F39033E9F53B
:1002300090E338C0F901020F131F24E8E017F1071B
:1002400079F091919093BB002093BC009091BC00F9
:1002500097FFFCCF9091B900987F983279F3E6CF61
:10026000C114D10409F44AC020E194EA9093BC007F
:100270009091BC0097FFFCCF9091B900987F9213AA
:1002800014C081608093BB0084E88093BC0080919F
:10029000BC0087FFFCCF9091B900987F903439F073
:1002A000983419F484E98093BC00892F2FC0F7019A
:1002B00084EC91E0C916D10491F08093BC00909138
:1002C000BC0097FFFCCF9091B900987F21E0C21A43
:1002D000D108903551F79091BB009193EACF84E813
:1002E0008093BC008091BC0087FFFCCF9091B90047
:1002F000987F9835D1F68091BB00808390E0D2CF73
:10030000C114D10411F028E0B0CF80E01F910F910B
:10031000FF90EF90DF90CF900895CF92DF92EF9211
:10032000FF920F931F93CF93DF9300D0CDB7DEB72B
:100330008A83C12CD12CE12CF12C01E010E09E012C
:100340002E5F3F4F40E050E060E070E088E80E94A0
:10035000D300CC24C394D12CCE0101967C0100E0C3
:1003600010E020E030E040E050E060E070E088E83D
:100370000E94D30089810F900F90DF91CF911F9140
:100380000F91FF90EF90DF90CF900895CF92DF9282
:10039000EF92FF920F931F93CF93DF9300D01F92A2
:1003A000CDB7DEB78B8382E089838A83C12CD12CC1
:1003B000E12CF12C01E010E09E012D5F3F4F40E069
:1003C00050E060E070E088E80E94D300882319F0D4
:1003D0008BE191E015C032E0C32ED12CCE01019605
:1003E0007C0100E010E020E030E040E050E060E020
:1003F00070E088E80E94D300882339F08CE291E015
:100400000E94AC0080E090E007C0898190E0982FC6
:1004100088272A81820F911D0F900F900F90DF91F6
:10042000CF911F910F91FF90EF90DF90CF900895A3
:10043000CF92DF92EF92FF920F931F93CF93DF93B0
:1004400000D0CDB7DEB789836A83C12CD12CE12CD3
:10045000F12C02E010E09E012F5F3F4F40E050E0A2
:1004600060E070E088E80E94D300882321F08DE3EB
:1004700091E00E94AC000F900F90DF91CF911F91FF
:100480000F91FF90EF90DF90CF900895CF9366E4A7
:1004900080E00E94180281E00E948D01C82F82E056
:1004A0000E948D01C82B83E00E948D01C82B88E03B
:1004B0000E948D01C82B81E009F080E0CF91089562
:1004C0001F93CF93DF93182FD62FC42F682F81E06F
:1004D0000E9418026D2F82E00E9418026C2F83E0A8
:1004E0000E94180281E00E948D0181130AC082E0FF
:1004F0000E948D018D1305C083E00E948D0191E063
:100500008C1390E0892FDF91CF911F910895CF93A5
:1005100080E00E948D01C82F8CE491E00E94AC0025
:10052000CD3721F087E591E00E94AC0083E691E0B1
:100530000E94AC000E944602C82F8EE691E00E9405
:10054000AC0040E06FE38DE00E946002C82385E7C5
:1005500091E00E94AC008C2FCF9108958BE00C9419
:10056000C60189E00C94C6018DE00C94C601CF92BF
:10057000DF92EF92FF920F931F93CF93DF9300D000
:10058000CDB7DEB78A83C12CD12CE12CF12C01E050
:1005900010E09E012E5F3F4F40E050E060E070E0D1
:1005A00083EA0E94D300CC24C394D12CCE010196BF
:1005B0007C0100E010E020E030E040E050E060E04E
:1005C00070E083EA0E94D30089810F900F90DF9141
:1005D000CF911F910F91FF90EF90DF90CF900895F2
:1005E000CF92DF92EF92FF920F931F93CF93DF93FF
:1005F00000D01F92CDB7DEB78B8382E089838A83D8
:10060000C12CD12CE12CF12C01E010E09E012D5FDA
:100610003F4F40E050E060E070E083EA0E94D3008A
:10062000882319F08BE191E015C032E0C32ED12C64
:10063000CE0101967C0100E010E020E030E040E0D7
:1006400050E060E070E083EA0E94D300882339F034
:100650008CE291E00E94AC0080E090E007C08981CC
:1006600090E0982F88272A81820F911D0F900F907C
:100670000F90DF91CF911F910F91FF90EF90DF903E
:10068000CF900895CF92DF92EF92FF920F931F9336
:10069000CF93DF9300D0CDB7DEB789836A83C12CB7
:1006A000D12CE12CF12C02E010E09E012F5F3F4F96
:1006B00040E050E060E070E083EA0E94D3008823CD
:1006C00021F08DE391E00E94AC000F900F90DF913C
:1006D000CF911F910F91FF90EF90DF90CF900895F1
:1006E00060E082E00E94420361E083E00E944203F6
:1006F00060E184E00C944203CF93DF93EC0182E04D
:100700000E94B7028F738A8383E00E94B7028F73BF
:10071000898384E00E94B7028F7188838CE791E01F
:10072000DF91CF910C94AC00CF93DF9300D01F9258
:10073000CDB7DEB70E94B8008FE891E00E94AC0010
:100740000E94CE002FEF8FEF9DE12150804090401E
:10075000E1F700C0000089E991E00E94AC000E942E
:10076000870285EA91E00E94AC0019821A821B82FE
:1007700082E50E945A000E94AE020E94610087E456
:100780000E945A000E94B1020E94610082E40E940D
:100790005A000E94B4020E946100CE0101960E949C
:1007A0007C03898190E00E94610085E591E00E94D0
:1007B000AC008A8190E00E94610085E591E00E9492
:1007C000AC008B8190E00E94610081EB91E00E947F
:1007D000AC002FEF8FEF9BE3215080409040E1F77A
:1007E00000C00000C5CFAA1BBB1B51E107C0AA1F58
:1007F000BB1FA617B70710F0A61BB70B881F991FC2
:100800005A95A9F780959095BC01CD010895F8946B
:02081000FFCF18
:100812002D2D2D2D73657269616C20696E69746965
:10082200616C697A65642D2D2D2D002052656164FD
:1008320031365F77206661696C65640020526561BC
:100842006431365F72206661696C6564002057729C
:1008520069746538206661696C656400444556496F
:1008620043455F49443A002064617461213D307818
:1008720037440020436865636B6564494400205235
:100882006573657400436F6E6669670020656E6408
:10089200206F66207265616454696D652829007352
:1008A2006F6D657468696E670020697320776F7277
:1008B2006B696E67002071756974652077656C6C71
:0608C200002020202000B0
:00000001FF
