:100000000C9434000C943E000C943E000C943E0082
:100010000C943E000C943E000C943E000C943E0068
:100020000C943E000C943E000C943E000C943E0058
:100030000C943E000C943E000C943E000C943E0048
:100040000C943E000C943E000C943E000C943E0038
:100050000C943E000C943E000C943E000C943E0028
:100060000C943E000C943E0011241FBECFEFD8E04C
:10007000DEBFCDBF0E9461000C9474000C940000A0
:100080009093C5008093C400E1ECF0E0808188602B
:10009000808380818061808386E08093C2000895A0
:1000A0008BB18BB908959091C00095FFFCCF8093E0
:1000B000C60008958091C00087FFFCCF8091C600E4
:1000C000089580E895E20E9440000E94500081E679
:1000D0000E9453002FEF8FEF9EE021508040904010
:0C00E000E1F700C00000F3CFF894FFCF60
:00000001FF
