:100000000C9434000C943E000C943E000C943E0082
:100010000C943E000C943E000C943E000C943E0068
:100020000C943E000C943E000C943E000C943E0058
:100030000C943E000C943E000C943E000C943E0048
:100040000C943E000C943E000C943E000C943E0038
:100050000C943E000C943E000C943E000C943E0028
:100060000C943E000C943E0011241FBECFEFD8E04C
:10007000DEBFCDBF0E9458000C9481000C9400009C
:10008000E1ECF0E0808188618083E2ECF0E0808147
:10009000866080838FE290E09093C5008093C400D7
:1000A00008958091C00087FFFCCF8091C60008951D
:1000B0000E944000219A8AB180668AB980918000AE
:1000C00081688093800080918100896080938100A5
:1000D00084B5836A84BD85B5816085BD0E94510069
:1000E000982F937031F490E090938900809388006A
:1000F000F5CF913011F488BDF1CF923079F787BDFB
:06010000EDCFF894FFCFE3
:00000001FF
