:100000000C9434000C9451000C9451000C94510049
:100010000C9451000C9451000C9451000C9451001C
:100020000C9451000C9451000C9451000C9451000C
:100030000C9451000C9451000C9451000C945100FC
:100040000C9451000C9451000C9451000C945100EC
:100050000C9451000C9451000C9451000C945100DC
:100060000C9451000C94510011241FBECFEFD8E026
:10007000DEBFCDBF11E0A0E0B1E0E0EFFCE002C0E8
:1000800005900D92AE39B107D9F722E0AEE9B1E0A3
:1000900001C01D92AA33B207E1F70E942A050C9411
:1000A00076060C9400005B988091C00087FFFCCF1F
:1000B0008091C60008955B989091C00095FFFCCF99
:1000C0008093C6000895CF92DF92EF92FF920F9334
:1000D0001F93CF93DF93CDB7DEB764970FB6F89435
:1000E000DEBF0FBECDBF8C015B9880E20E945B003B
:1000F0000115110521F480E30E945B001FC0FE0181
:1001000031966F012AE030E0C801B9010E942C0647
:10011000805D81938B017F01EC18FD0861157105ED
:1001200099F7E114F10451F081E0E81AF108F601C1
:10013000EE0DFF1D80810E945B00F3CF80E264968C
:100140000FB6F894DEBF0FBECDBFDF91CF911F91E8
:100150000F91FF90EF90DF90CF900C945B00CF93C6
:10016000DF935B98EC018991882319F00E945B0072
:10017000FACFDF91CF910895E1ECF0E080818861C2
:100180008083E2ECF0E08081866080838FE290E003
:100190009093C5008093C400539A5B9886E091E0E9
:1001A0000C94AF005B9A93E09A95F1F70000909160
:1001B000C00095FFFCCF8093C60008958C7F0C94FF
:1001C000D2008C7F8F5F0C94D2008C7F8E5F0C945A
:1001D000D2001092B9001092B8000895CF92DF9229
:1001E000EF92FF920F931F934115510521F40115D2
:1001F000110509F4A0C094EA9093BC009091BC0052
:1002000097FFFCCF9091B900987F983009F068C0B3
:10021000982F9E7F9093BB0094E89093BC009091A0
:10022000BC0097FFFCCF9091B900987F983121F0E6
:10023000903209F055C051C0FB01460F571F64E8CA
:10024000E417F50791F091919093BB006093BC0087
:100250009091BC0097FFFCCF9091B900987F9832A5
:1002600079F39033E9F590E338C0F901020F131FD9
:1002700024E8E017F10779F091919093BB00209367
:10028000BC009091BC0097FFFCCF9091B900987F83
:10029000983279F3E6CFC114D10409F44AC020E1C1
:1002A00094EA9093BC009091BC0097FFFCCF909192
:1002B000B900987F921314C081608093BB0084E8DA
:1002C0008093BC008091BC0087FFFCCF9091B90067
:1002D000987F903439F0983419F484E98093BC0005
:1002E000892F2FC0F70184EC91E0C916D10491F059
:1002F0008093BC009091BC0097FFFCCF9091B90017
:10030000987F21E0C21AD108903551F79091BB0037
:100310009193EACF84E88093BC008091BC0087FF72
:10032000FCCF9091B900987F9835D1F68091BB00B1
:10033000808390E0D2CFC114D10411F028E0B0CF77
:1003400080E01F910F91FF90EF90DF90CF90089584
:10035000CF92DF92EF92FF920F931F93CF93DF9391
:1003600000D0CDB7DEB78A83C12CD12CE12CF12C83
:1003700001E010E09E012E5F3F4F40E050E060E062
:1003800070E088E80E94EE00CC24C394D12CCE010A
:1003900001967C0100E010E020E030E040E050E019
:1003A00060E070E088E80E94EE0089810F900F9075
:1003B000DF91CF911F910F91FF90EF90DF90CF9041
:1003C0000895CF92DF92EF92FF920F931F93CF93F6
:1003D000DF9300D01F92CDB7DEB78B8382E0898395
:1003E0008A83C12CD12CE12CF12C01E010E09E017C
:1003F0002D5F3F4F40E050E060E070E088E80E94F1
:10040000EE00882319F081E291E015C032E0C32E9E
:10041000D12CCE0101967C0100E010E020E030E01C
:1004200040E050E060E070E088E80E94EE00882341
:1004300039F082E391E00E94AF0080E090E007C0D5
:10044000898190E0982F88272A81820F911D0F9033
:100450000F900F90DF91CF911F910F91FF90EF9030
:10046000DF90CF900895CF92DF92EF92FF920F939B
:100470001F93CF93DF9300D0CDB7DEB789836A8314
:10048000C12CD12CE12CF12C02E010E09E012F5F59
:100490003F4F40E050E060E070E088E80E94EE00EE
:1004A000882321F083E491E00E94AF000F900F9029
:1004B000DF91CF911F910F91FF90EF90DF90CF9040
:1004C0000895CF9366E480E00E94330281E00E94A9
:1004D000A801C82F82E00E94A801C82B83E00E94D7
:1004E000A801C82B88E00E94A801C82B81E009F070
:1004F00080E0CF9108951F93CF93DF93182FD62FCD
:10050000C42F682F81E00E9433026D2F82E00E9489
:1005100033026C2F83E00E94330281E00E94A80125
:1005200081130AC082E00E94A8018D1305C083E0F8
:100530000E94A80191E08C1390E0892FDF91CF9168
:100540001F910895CF93DF9380E00E94A801C82FE8
:10055000D0E082E591E00E94AF00CE010E946300EE
:10056000CD37D10521F08DE591E00E94AF0089E6FD
:1005700091E00E94AF000E946102C82F84E791E0E1
:100580000E94AF0040E06FE38DE00E947B02C82331
:100590008BE791E00E94AF008C2FDF91CF910895FF
:1005A0008BE00C94E10189E00C94E1018DE00C9466
:1005B000E101CF92DF92EF92FF920F931F93CF93BF
:1005C000DF9300D0CDB7DEB78A83C12CD12CE12CCC
:1005D000F12C01E010E09E012E5F3F4F40E050E023
:1005E00060E070E083EA0E94EE00CC24C394D12C3A
:1005F000CE0101967C0100E010E020E030E040E018
:1006000050E060E070E083EA0E94EE0089810F9084
:100610000F90DF91CF911F910F91FF90EF90DF909E
:10062000CF900895CF92DF92EF92FF920F931F9396
:10063000CF93DF9300D01F92CDB7DEB78B8382E0DC
:1006400089838A83C12CD12CE12CF12C01E010E0AC
:100650009E012D5F3F4F40E050E060E070E083EA94
:100660000E94EE00882319F081E291E015C032E08B
:10067000C32ED12CCE0101967C0100E010E020E0D9
:1006800030E040E050E060E070E083EA0E94EE007D
:10069000882339F082E391E00E94AF0080E090E08F
:1006A00007C0898190E0982F88272A81820F911DA9
:1006B0000F900F900F90DF91CF911F910F91FF90AE
:1006C000EF90DF90CF900895CF92DF92EF92FF925C
:1006D0000F931F93CF93DF9300D0CDB7DEB78983FD
:1006E0006A83C12CD12CE12CF12C02E010E09E0198
:1006F0002F5F3F4F40E050E060E070E083EA0E94EF
:10070000EE00882321F083E491E00E94AF000F9077
:100710000F90DF91CF911F910F91FF90EF90DF909D
:10072000CF90089560E082E00E94640361E083E07E
:100730000E94640360E184E00C946403CF93DF9330
:10074000EC0182E00E94D9028F738A8383E00E94C9
:10075000D9028F73898384E00E94D9028F718883C4
:10076000DF91CF9108953B984398089586B183FB1C
:10077000882780F90895219A8AB180668AB9E0E8CD
:10078000F0E0808181688083E1E8F0E08081896029
:10079000808384B5836A84BD85B5816085BD0895F5
:1007A000EF92FF920F931F93CF93DF938C017B0106
:1007B000EA01FC0182818A3030F481E08093A0015B
:1007C00010929F0115C09CEE980F9A3030F4109251
:1007D000A00181E080939F010BC088521092A0017C
:1007E00010929F018A3020F481E080939E0102C024
:1007F00010929E018091A001882381F182E891E00E
:100800000E94AF0080910301888390910401998335
:10081000909105019A83F8019281989FC00111245B
:100820002AE030E0B9010E944006F7016083F80138
:1008300092818981989FC0011124B9010E944006CC
:10084000F7016183F80192818A81989FC001112488
:10085000B9010E944006F701628379C080919F012F
:10086000882359F18AE891E00E94AF00809100014D
:100870008883809101018983809102018A838FEFAF
:10088000F7018083F801228184E190E0AC01421BF2
:1008900051099A013CE0239F202D11242150F7019A
:1008A0002183F8012281821B910999E1899F802D82
:1008B00011248150F70182834AC080919E018823D0
:1008C00009F445C082E991E00E94AF000E94B6039E
:1008D000882319F081E08093A2018091A2018823EE
:1008E00099F0809100018883809101018983809132
:1008F00002018A838091A1018F5F8093A1018E31D3
:1009000060F01092A20109C08091A30188838091B8
:10091000A40189838091A5018A83F801228188E25C
:1009200090E0AC01421B51099A013CE0239F202D2D
:1009300011242150F7012083F8012281821B9109A3
:10094000839F802D11248058F70181831282F80142
:1009500082818093A801DF91CF911F910F91FF9029
:10096000EF900895109237021092360210922802EA
:10097000109227020895FF920F931F93CF93DF9356
:100980008C01F62E209127023091280280913602A8
:10099000909137024496C5E1D0E0BE010E942C063A
:1009A0002817390701F1F901EE0FFF1FDF01A755E5
:1009B000BE4F0D931C93DF01AD52BE4F6F2D70E003
:1009C0006D937C93E350FE4F50E051834083C90107
:1009D0000196BE010E942C06909328028093270264
:1009E00080E090E002C08FEF9FEFDF91CF911F91E9
:1009F0000F91FF90089580913602909137022091D7
:100A00002702309128022817390761F0019665E125
:100A100070E00E942C06909337028093360280E0AB
:100A200090E008958FEF9FEF0895EBE2F2E0808170
:100A300090E0909389008093880080810C94DE0080
:100A400080912C0288BD0C94E10080912D0287BD1D
:100A50000C94E500CF93DF9300D01F92CDB7DEB7A3
:100A60000E94BB030E94BC000E94E9000E94A202F7
:100A70000E94B2040E94920319821A821B829BE098
:100A8000C92ED12CE12CF12C01E011E0CE01019610
:100A90000E949E03898190E00E9463008BE591E0B3
:100AA0000E94AF008A8190E00E9463008BE591E094
:100AB0000E94AF008B8190E00E94630088E991E082
:100AC0000E94AF000E94D0025C010E94D302982EC7
:100AD0000E94D602882E482F692DC5010E94BB04B2
:100AE000019639F40E94FB04482D692DC5010E942E
:100AF000BB04E9EAF1E083ED282E81E0382E2DEFEA
:100B000031E0812C912C5401412C512C320160E0B8
:100B100070E0CB0141915191640F751F811D911DB2
:100B2000D1014D915D911D01440E551E611C711C3A
:100B3000D9014D915D919D01840E951EA11CB11CA2
:100B4000B1E0EF3BFB0731F7A70196010E94540685
:100B5000C901B8010E942C0660933102C301B201A1
:100B6000A70196010E945406C901B8010E942C06F3
:100B700060932F02C501B401A70196010E9454069B
:100B8000C901B8010E942C066093300242E352E092
:100B90006BE272E0CE0101960E94D0038091320296
:100BA000A82EA69490913102A91680F4B0902B0241
:100BB000AB1470F4B0922B020E9415058FEF9FE5E5
:100BC0000197F1F700C00000BA94F2CF80932B0296
:100BD00080913302A82EA69490912F02A91680F43A
:100BE000B0902C02AB1470F4B0922C020E9420053D
:100BF000AFEFBFE51197F1F700C00000BA94F2CF54
:100C000080932C0280913402A82EA69490913002F9
:100C1000A91680F4B0902D02AB1470F4B0922D029E
:100C20000E9425058FEF9FE50197F1F700C00000B6
:100C3000BA94F2CF80932D020E9415050E942005E0
:100C40000E9425059FEFAFEFB2E09150A040B04069
:100C5000E1F700C000C01ACFAA1BBB1B51E107C0BF
:100C6000AA1FBB1FA617B70710F0A61BB70B881F3C
:100C7000991F5A95A9F780959095BC01CD010895CB
:100C800097FB072E16F4009407D077FD09D00E9439
:100C90002C0607FC05D03EF4909581959F4F089552
:100CA000709561957F4F0895A1E21A2EAA1BBB1B78
:100CB000FD010DC0AA1FBB1FEE1FFF1FA217B30728
:100CC000E407F50720F0A21BB30BE40BF50B661F3E
:100CD000771F881F991F1A9469F760957095809502
:100CE00090959B01AC01BD01CF010895F894FFCF11
:100CF000FF8000FFFFFF2D2D2D2D73657269616C44
:100D000020696E697469616C697A65642D2D2D2D79
:100D100000205265616431365F77206661696C65D9
:100D20006400205265616431365F72206661696CCF
:100D300065640020577269746538206661696C6566
:100D400064004445564943455F49443A0020646184
:100D50007461213D307837440020436865636B65DA
:100D60006449440020526573657400436F6E666980
:100D7000670064617974696D65006576656E696E9A
:0E0D800067006E696768740020202020000064
:00000001FF
