:100000000C9434000C9449000C9449000C94490061
:100010000C9449000C9449000C9449000C9449003C
:100020000C9449000C9449000C9449000C9449002C
:100030000C9449000C9449000C9449000C9449001C
:100040000C9449000C9449000C9449000C9449000C
:100050000C9449000C9449000C9449000C944900FC
:100060000C9449000C94490011241FBECFEFD8E036
:10007000DEBFCDBF11E0A0E0B1E0EEE1F2E002C0F2
:1000800005900D92AA30B107D9F70E94E0000C94B8
:100090000D010C940000E1ECF0E080818861808328
:1000A000E2ECF0E08081866080838FE290E09093C4
:1000B000C5008093C400539A5B9808958091C00056
:1000C00087FFFCCF8091C60008959091C00095FFF6
:1000D000FCCF8093C6000895CF93DF93EC01899104
:1000E000882319F00E946500FACFDF91CF9108951F
:1000F0008AE00C946500CF92DF92EF92FF920F930B
:100100001F93CF93DF93CDB7DEB764970FB6F89404
:10011000DEBF0FBECDBF8C0188E00E94650088E085
:100120000E94650088E00E9465000115110589F4B0
:1001300080E364960FB6F894DEBF0FBECDBFDF91AB
:10014000CF911F910F91FF90EF90DF90CF900C9483
:100150006500FE0131966F012AE030E0C801B90167
:100160000E94F900805D81938B017F01EC18FD08EE
:100170006115710599F7E114F10451F081E0E81A75
:10018000F108F601EE0DFF1D80810E946500F3CF9E
:1001900064960FB6F894DEBF0FBECDBFDF91CF914E
:1001A0001F910F91FF90EF90DF90CF9008953B98B3
:1001B0004398089586B183FB882780F990E00895DD
:1001C0000E944B000E94D7000E94DA00892B19F090
:1001D00080E091E002C084E091E00E946C002FEF8B
:1001E0008FEF9DE1215080409040E1F700C000007A
:1001F000EBCFAA1BBB1B51E107C0AA1FBB1FA61751
:10020000B70710F0A61BB70B881F991F5A95A9F7BF
:0E02100080959095BC01CD010895F894FFCF24
:0A021E006F6E20006F66662000007E
:00000001FF
