:100000000C9434000C943E000C943E000C943E0082
:100010000C943E000C943E000C943E000C943E0068
:100020000C943E000C943E000C943E000C943E0058
:100030000C943E000C943E000C943E000C943E0048
:100040000C943E000C943E000C943E000C943E0038
:100050000C943E000C943E000C943E000C943E0028
:100060000C943E000C943E0011241FBECFEFD8E04C
:10007000DEBFCDBF0E9440000C9472000C940000C3
:10008000219A229A239A809180008168809380002F
:100090008091810089608093810051E040E02FEFE2
:1000A00030E0842F90E09093890080938800B9011C
:1000B000681B790B70938B0060938A00552311F0B5
:1000C00081E001C08FEF480F4F3F21F0411103C085
:1000D00051E001C050E08FEF9FE50197F1F700C0BC
:0800E0000000DFCFF894FFCF10
:00000001FF
