:100000000C9434000C943E000C943E000C943E0082
:100010000C943E000C943E000C943E000C943E0068
:100020000C943E000C943E000C943E000C943E0058
:100030000C943E000C943E000C943E000C943E0048
:100040000C943E000C943E000C943E000C943E0038
:100050000C943E000C943E000C943E000C943E0028
:100060000C943E000C943E0011241FBECFEFD8E04C
:10007000DEBFCDBF0E9440000C9490000C940000A5
:10008000219A8AB180668AB98091800081688093C4
:1000900080008091810089608093810084B5836AAB
:1000A00084BD85B5816085BD71E061E051E040EAC5
:1000B00030E520E0822F90E09093890080938800C3
:1000C00038BD47BD552311F081E001C08FEF280FE7
:1000D0002F3F21F0211103C051E001C050E0662301
:1000E00011F081E001C08FEF380F3F3F21F0311157
:1000F00003C061E001C060E0772311F081E001C03E
:100100008FEF480F4F3F21F0411103C071E001C054
:1001100070E08FEF9FE20197F1F700C00000CACFB7
:04012000F894FFCF81
:00000001FF
