:100000000C9434000C9449000C9449000C94490061
:100010000C9449000C9449000C9449000C9449003C
:100020000C9449000C9449000C9449000C9449002C
:100030000C9449000C9449000C9449000C9449001C
:100040000C9449000C9449000C9449000C9449000C
:100050000C9449000C9449000C9449000C944900FC
:100060000C9449000C94490011241FBECFEFD8E036
:10007000DEBFCDBF11E0A0E0B1E0E0E1F6E002C0FC
:1000800005900D92AA3BB107D9F70E94DC020C94AF
:1000900006030C9400008091C00087FFFCCF809184
:1000A000C60008959091C00095FFFCCF8093C600D4
:1000B0000895CF92DF92EF92FF920F931F93CF9309
:1000C000DF93CDB7DEB764970FB6F894DEBF0FBEEF
:1000D000CDBF8C0180E20E9452000115110521F470
:1000E00080E30E9452001FC0FE0131966F012AE09A
:1000F00030E0C801B9010E94F202805D81938B015A
:100100007F01EC18FD086115710599F7E114F10400
:1001100051F081E0E81AF108F601EE0DFF1D808133
:100120000E945200F3CF80E264960FB6F894DEBFCF
:100130000FBECDBFDF91CF911F910F91FF90EF9038
:10014000DF90CF900C945200CF93DF93EC01899114
:10015000882319F00E945200FACFDF91CF910895C1
:10016000E1ECF0E0808188618083E2ECF0E0808166
:10017000866080838FE290E09093C5008093C400F6
:10018000539A5B9A80E091E00C94A4001092B9001D
:100190001092B8000895CF92DF92EF92FF920F93E2
:1001A0001F93CF93DF934115510521F401151105DC
:1001B00009F4B7C094EA9093BC009091BC0097FFFB
:1001C000FCCFC091B900C87FC83019F08BE191E035
:1001D00017C0982F9E7F9093BB0094E89093BC002B
:1001E0009091BC0097FFFCCFC091B900C87FC83187
:1001F00051F0C03219F480E291E03AC085E291E01A
:100200000E94A40063C0FB01460F571F64E8E41777
:10021000F507A1F091919093BB006093BC00909181
:10022000BC0097FFFCCF9091B900987F983279F38A
:10023000C92F903309F447C0892F79C0F901020F03
:10024000131F94E8E017F107E1F021912093BB0020
:100250009093BC002091BC0027FFFCCFD091B90047
:10026000D87FD83279F3CD2FD03329F48AE291E0C8
:100270000E94A40028C08FE291E00E94A4008D2F6C
:1002800056C0C114D10409F44AC090E124EA209375
:10029000BC002091BC0027FFFCCFC091B900C87FF3
:1002A000C91314C081608093BB0084E88093BC00B4
:1002B0008091BC0087FFFCCFC091B900C87FC034DB
:1002C00039F0C83419F484E98093BC008C2F2FC016
:1002D000F70184EC91E0C916D10491F08093BC0041
:1002E0009091BC0097FFFCCFC091B900C87F91E00E
:1002F000C91AD108C03551F79091BB009193EACF4C
:1003000084E88093BC008091BC0087FFFCCFC09143
:10031000B900C87FC835D1F68091BB008083C0E0AA
:10032000D2CFC114D10411F098E0B0CF80E0DF91BA
:10033000CF911F910F91FF90EF90DF90CF90089594
:10034000CF92DF92EF92FF920F931F93CF93DF93A1
:1003500000D0CDB7DEB78A83C12CD12CE12CF12C93
:1003600001E010E09E012E5F3F4F40E050E060E072
:1003700070E084E40E94CB00882331F084E391E0B4
:100380000E94A40080E018C0CC24C394D12CCE01DC
:1003900001967C0100E010E020E030E040E050E019
:1003A00060E070E084E40E94CB00882321F084E4C4
:1003B00091E00E94A40089810F900F90DF91CF916E
:1003C0001F910F91FF90EF90DF90CF900895CF9203
:1003D000DF92EF92FF920F931F93CF93DF9300D0A2
:1003E0001F92CDB7DEB78B8382E089838A83C12CCD
:1003F000D12CE12CF12C01E010E09E012D5F3F4F4C
:1004000040E050E060E070E084E40E94CB0088238C
:1004100019F084E591E015C032E0C32ED12CCE0155
:1004200001967C0100E010E020E030E040E050E088
:1004300060E070E084E40E94CB00882339F085E618
:1004400091E00E94A40080E090E007C0898190E0E4
:10045000982F88272A81820F911D0F900F900F905F
:10046000DF91CF911F910F91FF90EF90DF90CF9090
:100470000895CF92DF92EF92FF920F931F93CF9345
:10048000DF9300D0CDB7DEB789836A83C12CD12C2E
:10049000E12CF12C02E010E09E012F5F3F4F40E085
:1004A00050E060E070E084E40E94CB00882321F0FB
:1004B00086E791E00E94A4000F900F90DF91CF910A
:1004C0001F910F91FF90EF90DF90CF900895CF9301
:1004D00066E480E00E94390281E00E94A001C82FFA
:1004E00082E00E94A001C82B83E00E94A001C82BDB
:1004F00088E00E94A001C82B81E009F080E0CF9144
:1005000008951F93CF93DF93182FD62FC42F682FF2
:1005100081E00E9439026D2F82E00E9439026C2F27
:1005200083E00E94390281E00E94A00181130AC089
:1005300082E00E94A0018D1305C083E00E94A0010B
:1005400091E08C1390E0892FDF91CF911F91089556
:10055000CF9380E00E94A001C82F85E891E00E941F
:10056000A4008C2F90E00E945900CD3721F081E942
:1005700091E00E94A4008DE991E00E94A4000E94F5
:100580006702C82F88EA91E00E94A40040E06FE370
:100590008DE00E948102C8238FEA91E00E94A400AE
:1005A0008C2FCF9108958BE00C94E70189E00C9497
:1005B000E7018DE00C94E7010E94B00083E70E9400
:1005C00052000E94C60084E70E94520085E70E9404
:1005D00052000E94D3028FEF9FE50197F1F700C010
:1005E0000000F7CFAA1BBB1B51E107C0AA1FBB1F0E
:1005F000A617B70710F0A61BB70B881F991F5A95AF
:10060000A9F780959095BC01CD010895F894FFCF8E
:100610002D2D2D2D73657269616C20696E69746969
:10062000616C697A65642D2D2D2D0020434B3100BE
:1006300020434B320020434B330020434B340020F7
:10064000434B35002052656164385F7720666169ED
:100650006C6564002052656164385F722066616970
:100660006C656400205265616431365F7720666195
:10067000696C656400205265616431365F72206682
:1006800061696C6564002057726974653820666121
:10069000696C656400204445434956455F49443AC6
:1006A000002064617461213D307837440020436844
:1006B00065636B656449440020526573657400206E
:0A06C000436F6E6669676564000011
:00000001FF
