:100000000C9434000C9449000C9449000C94490061
:100010000C9449000C9449000C9449000C9449003C
:100020000C9449000C9449000C9449000C9449002C
:100030000C9449000C9449000C9449000C9449001C
:100040000C9449000C9449000C9449000C9449000C
:100050000C9449000C9449000C9449000C944900FC
:100060000C9449000C94490011241FBECFEFD8E036
:10007000DEBFCDBF11E0A0E0B1E0E6E2F5E002C0F6
:1000800005900D92A435B107D9F70E943E020C9459
:1000900091020C9400008091C00087FFFCCF8091FA
:1000A000C60008959091C00095FFFCCF8093C600D4
:1000B0000895CF92DF92EF92FF920F931F93CF9309
:1000C000DF93CDB7DEB764970FB6F894DEBF0FBEEF
:1000D000CDBF8C0180E20E9452000115110521F470
:1000E00080E30E9452001FC0FE0131966F012AE09A
:1000F00030E0C801B9010E947D02805D81938B01CF
:100100007F01EC18FD086115710599F7E114F10400
:1001100051F081E0E81AF108F601EE0DFF1D808133
:100120000E945200F3CF80E264960FB6F894DEBFCF
:100130000FBECDBFDF91CF911F910F91FF90EF9038
:10014000DF90CF900C945200CF93DF93EC01899114
:10015000882319F00E945200FACFDF91CF910895C1
:10016000E1ECF0E0808188618083E2ECF0E0808166
:10017000866080838FE290E09093C5008093C400F6
:10018000539A5B9880E091E00C94A4001092B9001F
:100190001092B8000895CF92DF92EF92FF920F93E2
:1001A0001F934115510521F40115110509F4A0C053
:1001B00094EA9093BC009091BC0097FFFCCF909183
:1001C000B900987F983009F068C0982F9E7F90936F
:1001D000BB0094E89093BC009091BC0097FFFCCFCB
:1001E0009091B900987F983121F0903209F055C074
:1001F00051C0FB01460F571F64E8E417F50791F063
:1002000091919093BB006093BC009091BC0097FFCC
:10021000FCCF9091B900987F983279F39033E9F54B
:1002200090E338C0F901020F131F24E8E017F1072B
:1002300079F091919093BB002093BC009091BC0009
:1002400097FFFCCF9091B900987F983279F3E6CF71
:10025000C114D10409F44AC020E194EA9093BC008F
:100260009091BC0097FFFCCF9091B900987F9213BA
:1002700014C081608093BB0084E88093BC008091AF
:10028000BC0087FFFCCF9091B900987F903439F083
:10029000983419F484E98093BC00892F2FC0F701AA
:1002A00084EC91E0C916D10491F08093BC00909148
:1002B000BC0097FFFCCF9091B900987F21E0C21A53
:1002C000D108903551F79091BB009193EACF84E823
:1002D0008093BC008091BC0087FFFCCF9091B90057
:1002E000987F9835D1F68091BB00808390E0D2CF83
:1002F000C114D10411F028E0B0CF80E01F910F911C
:10030000FF90EF90DF90CF900895CF92DF92EF9221
:10031000FF920F931F93CF93DF9300D0CDB7DEB73B
:100320008A83C12CD12CE12CF12C01E010E09E013C
:100330002E5F3F4F40E050E060E070E083EA0E94B3
:10034000CB00CC24C394D12CCE0101967C0100E0DB
:1003500010E020E030E040E050E060E070E083EA50
:100360000E94CB0089810F900F90DF91CF911F9158
:100370000F91FF90EF90DF90CF900895CF92DF9292
:10038000EF92FF920F931F93CF93DF9300D01F92B2
:10039000CDB7DEB78B8382E089838A83C12CD12CD1
:1003A000E12CF12C01E010E09E012D5F3F4F40E079
:1003B00050E060E070E083EA0E94CB00882319F0EF
:1003C0008BE191E015C032E0C32ED12CCE01019615
:1003D0007C0100E010E020E030E040E050E060E030
:1003E00070E083EA0E94CB00882339F08CE291E030
:1003F0000E94A40080E090E007C0898190E0982FDF
:1004000088272A81820F911D0F900F900F90DF9106
:10041000CF911F910F91FF90EF90DF90CF900895B3
:10042000CF92DF92EF92FF920F931F93CF93DF93C0
:1004300000D0CDB7DEB789836A83C12CD12CE12CE3
:10044000F12C02E010E09E012F5F3F4F40E050E0B2
:1004500060E070E083EA0E94CB00882321F08DE306
:1004600091E00E94A4000F900F90DF91CF911F9117
:100470000F91FF90EF90DF90CF9008950E94B00011
:100480000E94C60060E082E00E94100261E083E00A
:100490000E94100260E184E00E94100282E00E944B
:1004A0008501C82F83E00E948501D82F84E00E9437
:1004B00085018F7190E00E9459008CE491E00E94C8
:1004C000A4008D2F8F7390E00E9459008CE491E07E
:1004D0000E94A4008C2F8F7390E00E9459008EE43C
:1004E00091E00E94A4002FEF8FEF9BE3215080400A
:1004F0009040E1F700C00000D1CFAA1BBB1B51E127
:1005000007C0AA1FBB1FA617B70710F0A61BB70B83
:10051000881F991F5A95A9F780959095BC01CD0128
:060520000895F894FFCFDE
:100526002D2D2D2D73657269616C20696E69746954
:10053600616C697A65642D2D2D2D002052656164EC
:1005460031365F77206661696C65640020526561AB
:100556006431365F72206661696C6564002057728B
:1005660069746538206661696C6564003A0020200C
:040576002020000041
:00000001FF
