:100000000C9434000C9451000C9451000C94510049
:100010000C9451000C9451000C9451000C9451001C
:100020000C9451000C9451000C9451000C9451000C
:100030000C9451000C9451000C9451000C945100FC
:100040000C9451000C9451000C9451000C945100EC
:100050000C9451000C9451000C9451000C945100DC
:100060000C9451000C94510011241FBECFEFD8E026
:10007000DEBFCDBF11E0A0E0B1E0E4EDF9E002C0E9
:1000800005900D92AC38B107D9F723E0ACE8B1E0A8
:1000900001C01D92AB3FB207E1F70E94A9040C9486
:1000A000E8040C940000219A8AB180668AB9E0E8DD
:1000B000F0E0808181688083E1E8F0E08081896000
:1000C000808384B5836A84BD85B5816085BDE091F8
:1000D0008E01F0918F018FEF8083E0918E01F0917E
:1000E0008F018183E0918E01F0918F018283E091F5
:1000F0002903F0912A038083E0912903F0912A03D8
:1001000080E88183E0912903F0912A031282E09133
:100110005F02F09160021082E0915F02F091600254
:100120001182E0915F02F0916002128208958FEFD8
:100130008093F80380932B03809394018091F803BC
:1001400090E0909389008093880080912B0388BD74
:100150008091940187BD2FEF8FEF9BE3215080406A
:100160009040E1F700C0000080E890E0F894209112
:1001700094012150209394012091940127BD7894FB
:10018000EFEFFFE53197F1F700C00000019700970E
:1001900069F7FFEF2FEF8BE3F15020408040E1F74C
:1001A00000C000008FE790E0F89420919401215066
:1001B0002093940120912B03215020932B03209115
:1001C0002B0328BD2091940127BD7894EFEFFFE524
:1001D0003197F1F700C000000197009729F7FFEF72
:1001E0002FEF8BE3F15020408040E1F700C000008A
:1001F00080E890E0F89420912B03215020932B036A
:1002000020912B0328BD7894EFEFFFE53197F1F7AC
:1002100000C000000197009769F7FFEF2FEF8BE315
:10022000F15020408040E1F700C0000080E890E0FD
:10023000F89420912B032F5F20932B0320912B0305
:1002400028BD7894EFEFFFE53197F1F700C000008B
:100250000197009769F7FFEF2FEF8BE3F1502040F4
:100260008040E1F700C000008FE790E0F894209113
:100270002B032F5F20932B03209194012F5F20935A
:10028000940120912B0328BD2091940127BD7894DF
:10029000EFEFFFE53197F1F700C0000001970097FD
:1002A00029F780E890E0F894209194012F5F209343
:1002B00094012091940127BD7894EFEFFFE53197E9
:1002C000F1F700C000000197009769F70895809149
:1002D000C00087FFFCCF8091C60008959091C000B8
:1002E00095FFFCCF8093C6000895CF92DF92EF92E6
:1002F000FF920F931F93CF93DF93CDB7DEB7649731
:100300000FB6F894DEBF0FBECDBF8C0180E20E9415
:100310006E010115110521F480E30E946E011FC0DA
:10032000FE0131966F012AE030E0C801B9010E9458
:10033000D404805D81938B017F01EC18FD08611569
:10034000710599F7E114F10451F081E0E81AF10820
:10035000F601EE0DFF1D80810E946E01F3CF80E259
:1003600064960FB6F894DEBF0FBECDBFDF91CF917C
:100370001F910F91FF90EF90DF90CF900C946E0142
:10038000CF93DF93EC018991882319F00E946E01CD
:10039000FACFDF91CF910895E1ECF0E080818861A0
:1003A0008083E2ECF0E08081866080838FE290E0E1
:1003B0009093C5008093C400539A5B9880E091E0CD
:1003C0000C94C0011092B9001092B8000895CF9219
:1003D000DF92EF92FF920F931F934115510521F485
:1003E0000115110509F4A0C094EA9093BC00909106
:1003F000BC0097FFFCCF9091B900987F983009F02E
:1004000068C0982F9E7F9093BB0094E89093BC00A7
:100410009091BC0097FFFCCF9091B900987F9831E4
:1004200021F0903209F055C051C0FB01460F571F13
:1004300064E8E417F50791F091919093BB00609305
:10044000BC009091BC0097FFFCCF9091B900987FC1
:10045000983279F39033E9F590E338C0F901020F4F
:10046000131F24E8E017F10779F091919093BB00F6
:100470002093BC009091BC0097FFFCCF9091B900F5
:10048000987F983279F3E6CFC114D10409F44AC0B9
:1004900020E194EA9093BC009091BC0097FFFCCFC0
:1004A0009091B900987F921314C081608093BB0033
:1004B00084E88093BC008091BC0087FFFCCF9091C2
:1004C000B900987F903439F0983419F484E9809316
:1004D000BC00892F2FC0F70184EC91E0C916D1042C
:1004E00091F08093BC009091BC0097FFFCCF90915D
:1004F000B900987F21E0C21AD108903551F7909148
:10050000BB009193EACF84E88093BC008091BC004B
:1005100087FFFCCF9091B900987F9835D1F68091F4
:10052000BB00808390E0D2CFC114D10411F028E049
:10053000B0CF80E01F910F91FF90EF90DF90CF90B0
:100540000895CF92DF92EF92FF920F931F93CF9374
:10055000DF9300D0CDB7DEB78A83C12CD12CE12C3C
:10056000F12C01E010E09E012E5F3F4F40E050E093
:1005700060E070E088E80E94E701CC24C394D12CAD
:10058000CE0101967C0100E010E020E030E040E088
:1005900050E060E070E088E80E94E70189810F90F8
:1005A0000F90DF91CF911F910F91FF90EF90DF900F
:1005B000CF900895CF92DF92EF92FF920F931F9307
:1005C000CF93DF9300D01F92CDB7DEB78B8382E04D
:1005D00089838A83C12CD12CE12CF12C01E010E01D
:1005E0009E012D5F3F4F40E050E060E070E088E802
:1005F0000E94E701882319F08BE191E015C032E0F9
:10060000C32ED12CCE0101967C0100E010E020E049
:1006100030E040E050E060E070E088E80E94E701F0
:10062000882339F08CE291E00E94C00180E090E0E4
:1006300007C0898190E0982F88272A81820F911D19
:100640000F900F900F90DF91CF911F910F91FF901E
:10065000EF90DF90CF900895CF92DF92EF92FF92CC
:100660000F931F93CF93DF9300D0CDB7DEB789836D
:100670006A83C12CD12CE12CF12C02E010E09E0108
:100680002F5F3F4F40E050E060E070E088E80E945C
:10069000E701882321F08DE391E00E94C0010F90D3
:1006A0000F90DF91CF911F910F91FF90EF90DF900E
:1006B000CF900895CF9366E480E00E942C0381E000
:1006C0000E94A102C82F82E00E94A102C82B83E0F1
:1006D0000E94A102C82B88E00E94A102C82B81E0E1
:1006E00009F080E0CF9108951F93CF93DF93182FE7
:1006F000D62FC42F682F81E00E942C036D2F82E03B
:100700000E942C036C2F83E00E942C0381E00E9446
:10071000A10281130AC082E00E94A1028D1305C0CC
:1007200083E00E94A10291E08C1390E0892FDF9179
:10073000CF911F910895CF9380E00E94A102C82F0E
:100740008CE491E00E94C0018C2F90E00E94750122
:10075000CD3721F087E591E00E94C00183E691E06A
:100760000E94C0010E945A03C82F8EE691E00E94A9
:10077000C00140E06FE38DE00E947403C82385E769
:1007800091E00E94C0018C2FCF9108958BE00C94D2
:10079000DA0289E00C94DA028DE00C94DA02CF924E
:1007A000DF92EF92FF920F931F93CF93DF9300D0CE
:1007B000CDB7DEB78A83C12CD12CE12CF12C01E01E
:1007C00010E09E012E5F3F4F40E050E060E070E09F
:1007D00083EA0E94E701CC24C394D12CCE01019678
:1007E0007C0100E010E020E030E040E050E060E01C
:1007F00070E083EA0E94E70189810F900F90DF91FA
:10080000CF911F910F91FF90EF90DF90CF900895BF
:10081000CF92DF92EF92FF920F931F93CF93DF93CC
:1008200000D01F92CDB7DEB78B8382E089838A83A5
:10083000C12CD12CE12CF12C01E010E09E012D5FA8
:100840003F4F40E050E060E070E083EA0E94E70143
:10085000882319F08BE191E015C032E0C32ED12C32
:10086000CE0101967C0100E010E020E030E040E0A5
:1008700050E060E070E083EA0E94E701882339F0ED
:100880008CE291E00E94C00180E090E007C0898185
:1008900090E0982F88272A81820F911D0F900F904A
:1008A0000F90DF91CF911F910F91FF90EF90DF900C
:1008B000CF900895CF92DF92EF92FF920F931F9304
:1008C000CF93DF9300D0CDB7DEB789836A83C12C85
:1008D000D12CE12CF12C02E010E09E012F5F3F4F64
:1008E00040E050E060E070E083EA0E94E701882386
:1008F00021F08DE391E00E94C0010F900F90DF91F5
:10090000CF911F910F91FF90EF90DF90CF900895BE
:1009100060E082E00E945A0461E083E00E945A0491
:1009200060E184E00C945A0482E00E94CF038F734C
:100930008093020083E00E94CF038F7380930100B5
:1009400084E00E94CF038F718093000080E090E0EC
:1009500008950E9453008CE791E00E94C0010E941C
:100960009404EC01888190E00E94750185E591E096
:100970000E94C001898190E00E94750185E591E0A7
:100980000E94C0018A8190E00E94750186E891E092
:100990000E94C0012FEF8FEF9DE1215080409040D9
:1009A000E1F700C00000DBCFAA1BBB1B51E107C071
:1009B000AA1FBB1FA617B70710F0A61BB70B881FEF
:1009C000991F5A95A9F780959095BC01CD0108957E
:0409D000F894FFCFC9
:1009D4002D2D2D2D73657269616C20696E697469A2
:1009E400616C697A65642D2D2D2D0020526561643A
:1009F40031365F77206661696C65640020526561F9
:100A04006431365F72206661696C656400205772D8
:100A140069746538206661696C65640044455649AB
:100A240043455F49443A002064617461213D307854
:100A340037440020436865636B6564494400205271
:100A44006573657400436F6E666967006661696CFF
:0C0A540020686572650020202020000052
:00000001FF
