:100000000C9434000C9451000C9451000C94510049
:100010000C9451000C9451000C9451000C9451001C
:100020000C9451000C9451000C9451000C9451000C
:100030000C9451000C9451000C9451000C945100FC
:100040000C9451000C9451000C9451000C945100EC
:100050000C9451000C9451000C9451000C945100DC
:100060000C9451000C94510011241FBECFEFD8E026
:10007000DEBFCDBF11E0A0E0B1E0EAE3FAE002C0EC
:1000800005900D92A639B107D9F724E0A6E9B1E0B1
:1000900001C01D92A530B207E1F70E94BF040C9485
:1000A0001B050C9400008091C00087FFFCCF80915D
:1000B000C60008959091C00095FFFCCF8093C600C4
:1000C0000895CF92DF92EF92FF920F931F93CF93F9
:1000D000DF93CDB7DEB764970FB6F894DEBF0FBEDF
:1000E000CDBF8C0180E20E945A000115110521F458
:1000F00080E30E945A001FC0FE0131966F012AE082
:1001000030E0C801B9010E940705805D81938B0131
:100110007F01EC18FD086115710599F7E114F104F0
:1001200051F081E0E81AF108F601EE0DFF1D808123
:100130000E945A00F3CF80E264960FB6F894DEBFB7
:100140000FBECDBFDF91CF911F910F91FF90EF9028
:10015000DF90CF900C945A00CF93DF93EC018991FC
:10016000882319F00E945A00FACFDF91CF910895A9
:10017000E1ECF0E0808188618083E2ECF0E0808156
:10018000866080838FE290E09093C5008093C400E6
:10019000539A5B9880E091E00C94AC001092B90007
:1001A0001092B8000895CF92DF92EF92FF920F93D2
:1001B0001F934115510521F40115110509F4A0C043
:1001C00094EA9093BC009091BC0097FFFCCF909173
:1001D000B900987F983009F068C0982F9E7F90935F
:1001E000BB0094E89093BC009091BC0097FFFCCFBB
:1001F0009091B900987F983121F0903209F055C064
:1002000051C0FB01460F571F64E8E417F50791F052
:1002100091919093BB006093BC009091BC0097FFBC
:10022000FCCF9091B900987F983279F39033E9F53B
:1002300090E338C0F901020F131F24E8E017F1071B
:1002400079F091919093BB002093BC009091BC00F9
:1002500097FFFCCF9091B900987F983279F3E6CF61
:10026000C114D10409F44AC020E194EA9093BC007F
:100270009091BC0097FFFCCF9091B900987F9213AA
:1002800014C081608093BB0084E88093BC0080919F
:10029000BC0087FFFCCF9091B900987F903439F073
:1002A000983419F484E98093BC00892F2FC0F7019A
:1002B00084EC91E0C916D10491F08093BC00909138
:1002C000BC0097FFFCCF9091B900987F21E0C21A43
:1002D000D108903551F79091BB009193EACF84E813
:1002E0008093BC008091BC0087FFFCCF9091B90047
:1002F000987F9835D1F68091BB00808390E0D2CF73
:10030000C114D10411F028E0B0CF80E01F910F910B
:10031000FF90EF90DF90CF900895CF92DF92EF9211
:10032000FF920F931F93CF93DF9300D0CDB7DEB72B
:100330008A83C12CD12CE12CF12C01E010E09E012C
:100340002E5F3F4F40E050E060E070E088E80E94A0
:10035000D300CC24C394D12CCE0101967C0100E0C3
:1003600010E020E030E040E050E060E070E088E83D
:100370000E94D30089810F900F90DF91CF911F9140
:100380000F91FF90EF90DF90CF900895CF92DF9282
:10039000EF92FF920F931F93CF93DF9300D01F92A2
:1003A000CDB7DEB78B8382E089838A83C12CD12CC1
:1003B000E12CF12C01E010E09E012D5F3F4F40E069
:1003C00050E060E070E088E80E94D300882319F0D4
:1003D0008BE191E015C032E0C32ED12CCE01019605
:1003E0007C0100E010E020E030E040E050E060E020
:1003F00070E088E80E94D300882339F08CE291E015
:100400000E94AC0080E090E007C0898190E0982FC6
:1004100088272A81820F911D0F900F900F90DF91F6
:10042000CF911F910F91FF90EF90DF90CF900895A3
:10043000CF92DF92EF92FF920F931F93CF93DF93B0
:1004400000D0CDB7DEB789836A83C12CD12CE12CD3
:10045000F12C02E010E09E012F5F3F4F40E050E0A2
:1004600060E070E088E80E94D300882321F08DE3EB
:1004700091E00E94AC000F900F90DF91CF911F91FF
:100480000F91FF90EF90DF90CF900895219A8AB15D
:1004900080668AB9E0E8F0E0808181688083E1E8E5
:1004A000F0E080818960808384B5836A84BD85B5EE
:1004B000816085BDE091F603F091F7038FEF8083B3
:1004C000E091F603F091F7038183E091F603F09158
:1004D000F7038283E091FD03F091FE038083E091B6
:1004E000FD03F091FE0380E88183E091FD03F0912C
:1004F000FE031282E091FB03F091FC031082E09175
:10050000FB03F091FC031182E091FB03F091FC03EB
:10051000128208958FEF809302048093FF038093EB
:10052000F8038091020490E0909389008093880002
:100530008091FF0388BD8091F80387BD2FEF8FEF77
:100540009BE3215080409040E1F700C0000080E82C
:1005500090E0F8942091F80321502093F803209123
:10056000F80327BD7894EFEFFFE53197F1F700C06E
:1005700000000197009769F7FFEF2FEF8BE3F15031
:1005800020408040E1F700C000008FE790E0F89441
:100590002091F80321502093F8032091FF0321506C
:1005A0002093FF032091FF0328BD2091F80327BD6E
:1005B0007894EFEFFFE53197F1F700C00000019765
:1005C000009729F7FFEF2FEF8BE3F1502040804099
:1005D000E1F700C0000080E890E0F8942091FF036C
:1005E00021502093FF032091FF0328BD7894EFEF63
:1005F000FFE53197F1F700C000000197009769F718
:10060000FFEF2FEF8BE3F15020408040E1F700C077
:10061000000080E890E0F8942091FF032F5F209382
:10062000FF032091FF0328BD7894EFEFFFE531979A
:10063000F1F700C000000197009769F7FFEF2FEF77
:100640008BE3F15020408040E1F700C000008FE7CD
:1006500090E0F8942091FF032F5F2093FF032091F7
:10066000F8032F5F2093F8032091FF0328BD20910A
:10067000F80327BD7894EFEFFFE53197F1F700C05D
:1006800000000197009729F780E890E0F894209106
:10069000F8032F5F2093F8032091F80327BD789487
:1006A000EFEFFFE53197F1F700C0000001970097E9
:1006B00069F70895CF9366E480E00E94180281E014
:1006C0000E948D01C82F82E00E948D01C82B83E01B
:1006D0000E948D01C82B88E00E948D01C82B81E00B
:1006E00009F080E0CF9108951F93CF93DF93182FE7
:1006F000D62FC42F682F81E00E9418026D2F82E050
:100700000E9418026C2F83E00E94180281E00E9470
:100710008D0181130AC082E00E948D018D1305C0F6
:1007200083E00E948D0191E08C1390E0892FDF918E
:10073000CF911F910895CF93DF9380E00E948D01A8
:10074000C82FD0E08CE491E00E94AC00CE010E9462
:10075000610087E591E00E94AC00CD37D10521F022
:1007600089E591E00E94AC0085E691E00E94AC0032
:100770000E945A03C82F80E791E00E94AC0040E03D
:100780006FE38DE00E947403C82387E791E00E9425
:10079000AC008C2FDF91CF9108958BE00C94C601B3
:1007A00089E00C94C6018DE00C94C601CF92DF92D3
:1007B000EF92FF920F931F93CF93DF9300D0CDB7AB
:1007C000DEB78A83C12CD12CE12CF12C01E010E0A2
:1007D0009E012E5F3F4F40E050E060E070E083EA12
:1007E0000E94D300CC24C394D12CCE0101967C016D
:1007F00000E010E020E030E040E050E060E070E039
:1008000083EA0E94D30089810F900F90DF91CF91EE
:100810001F910F91FF90EF90DF90CF900895CF92AE
:10082000DF92EF92FF920F931F93CF93DF9300D04D
:100830001F92CDB7DEB78B8382E089838A83C12C78
:10084000D12CE12CF12C01E010E09E012D5F3F4FF7
:1008500040E050E060E070E083EA0E94D30088232B
:1008600019F08BE191E015C032E0C32ED12CCE01FE
:1008700001967C0100E010E020E030E040E050E034
:1008800060E070E083EA0E94D300882339F08CE2B4
:1008900091E00E94AC0080E090E007C0898190E088
:1008A000982F88272A81820F911D0F900F900F900B
:1008B000DF91CF911F910F91FF90EF90DF90CF903C
:1008C0000895CF92DF92EF92FF920F931F93CF93F1
:1008D000DF9300D0CDB7DEB789836A83C12CD12CDA
:1008E000E12CF12C02E010E09E012F5F3F4F40E031
:1008F00050E060E070E083EA0E94D300882321F09A
:100900008DE391E00E94AC000F900F90DF91CF91AA
:100910001F910F91FF90EF90DF90CF90089560E0CE
:1009200082E00E94610461E083E00E94610460E172
:1009300084E00C946104CF93DF9300D01F92CDB775
:10094000DEB719821A821B8282E00E94D6038F735F
:100950008B8383E00E94D6038F738A8384E00E9496
:10096000D6038F7189838EE791E00E94AC00CE019F
:1009700001960F900F900F90DF91CF9108950E94F4
:1009800046022FEF8FEF9DE1215080409040E1F72C
:1009900000C000000E94B8002FEF8FEF9DE12150B2
:1009A00080409040E1F700C000000E94CE002FEF91
:1009B0008FEF9DE1215080409040E1F700C00000A2
:1009C0000E949B030E949B04EC01888190E00E949E
:1009D000610085E591E00E94AC00898190E00E9471
:1009E000610085E591E00E94AC008A8190E00E9460
:1009F000610080E991E00E94AC002FEF8FEF9DE154
:100A0000215080409040E1F700C00000DBCFAA1BDE
:100A1000BB1B51E107C0AA1FBB1FA617B70710F0E9
:100A2000A61BB70B881F991F5A95A9F7809590951B
:0A0A3000BC01CD010895F894FFCF3A
:100A3A002D2D2D2D73657269616C20696E6974693B
:100A4A00616C697A65642D2D2D2D002052656164D3
:100A5A0031365F77206661696C6564002052656192
:100A6A006431365F72206661696C65640020577272
:100A7A0069746538206661696C6564004445564945
:100A8A0043455F49443A0031002064617461213D65
:100A9A00307837440020436865636B6564494400D5
:100AAA0020526573657400436F6E66696700656EF0
:100ABA0064206F66207265616454696D6528290037
:060ACA00202020200000A6
:00000001FF
