:100000000C9434000C943E000C943E000C943E0082
:100010000C943E000C943E000C943E000C943E0068
:100020000C943E000C943E000C943E000C943E0058
:100030000C943E000C943E000C943E000C943E0048
:100040000C943E000C943E000C943E000C943E0038
:100050000C943E000C943E000C943E000C943E0028
:100060000C943E000C943E0011241FBECFEFD8E04C
:10007000DEBFCDBF0E9440000C94D4000C94000061
:10008000219A229A569A80918000816A80938000FA
:100090008091810089608093810084B5836884BDEC
:1000A00085B5816085BD5FEF8FEF90E07FEF1092A7
:1000B00089001092880010928B0010928A0017BC61
:1000C0002FEF3FEF4BE3215030404040E1F700C0BD
:1000D00000009093890080938800252F30E03093B2
:1000E0008B0020938A0077BDEFEFFFEF2BE3E15009
:1000F000F0402040E1F700C00000652F4FEF415075
:100100006150262F30E030938B0020938A0047BD4A
:10011000EFEFFFE53197F1F700C000004F3779F7B7
:1001200060E8650FFFEF2FEF3BE3F15020403040D8
:10013000E1F700C00000415047BDEFEFFFE5319708
:10014000F1F700C000004111F6CFFFEF2FEF3BE3C6
:10015000F15020403040E1F700C000006F5F4F5F7A
:10016000262F30E030938B0020938A0047BDEFEFBD
:10017000FFE53197F1F700C000004F3779F7515094
:100180004F5F47BDEFEFFFE53197F1F700C000008B
:100190004F3FB1F7FFEF2FEF3BE3F15020403040EE
:0C01A000E1F700C0000083CFF894FFCF0F
:00000001FF
