:100000000C9434000C943E000C943E000C943E0082
:100010000C943E000C943E000C943E000C943E0068
:100020000C943E000C943E000C943E000C943E0058
:100030000C943E000C943E000C943E000C943E0048
:100040000C943E000C943E000C943E000C943E0038
:100050000C943E000C943E000C943E000C943E0028
:100060000C943E000C943E0011241FBECFEFD8E04C
:10007000DEBFCDBF0E9475000C94EB000C94000015
:10008000E1ECF0E0808188618083E2ECF0E0808147
:10009000866080838FE290E09093C5008093C400D7
:1000A000539A08955B9A93E09A95F1F70000909126
:1000B000C00095FFFCCF8093C60008955B9893E045
:1000C0009A95F1F700009091C00095FFFCCF8093C6
:1000D000C60008958C7F0C9452008C7F8F5F0C9427
:1000E00052008C7F8E5F0C9452000E944000DFEF24
:1000F0002FEF8FEF95E0215080409040E1F700C056
:1001000000C08CEF0E9452008D2F0E946D008FEF77
:100110000E9471002FEF8FEF95E0215080409040BA
:10012000E1F700C000C0CFEF8C2F8D0FC1500E94AF
:100130006D008C2F0E9471008FEF9FE50197F1F702
:1001400000C00000CF3781F710E81D0F9FEF2FEFA1
:1001500085E0915020408040E1F700C000C0C150D0
:100160008C2F0E9471008FEF9FE50197F1F700C07F
:100170000000C111F4CF9FEF2FEF8BE3915020408F
:100180008040E1F700C000001F5FCF5F812F0E9419
:100190006D008C2F0E9471008FEF9FE50197F1F7A2
:1001A00000C00000CF3781F7D150CF5F8C2F0E9465
:1001B00071008FEF9FE50197F1F700C00000CF3F7E
:1001C000A1F79FEF2FEF85E0915020408040E1F7AD
:0A01D00000C000C08DCFF894FFCFEF
:00000001FF
