:100000000C9434000C943E000C943E000C943E0082
:100010000C943E000C943E000C943E000C943E0068
:100020000C943E000C943E000C943E000C943E0058
:100030000C943E000C943E000C943E000C943E0048
:100040000C943E000C943E000C943E000C943E0038
:100050000C943E000C943E000C943E000C943E0028
:100060000C943E000C943E0011241FBECFEFD8E04C
:10007000DEBFCDBF0E9440000C945D000C940000D8
:100080008AB18FEF8AB980E090E021E030E08830DB
:1000900091057CF4A901082E01C0440F0A94EAF7E7
:1000A0004BB9ECECF4E03197F1F700C00000019699
:0E00B000EECF1BB880E090E0EACFF894FFCFCF
:00000001FF
